:020000040800F2
:100000000000062015750208717002087970020858
:1000100081700208897002089170020800000000D7
:10002000000000000000000000000000112D010889
:100030009970020800000000212F0108892F010893
:10004000657502086575020865750208C1710208C8
:100050006575020865750208257202086575020853
:100060006575020865750208657502086575020800
:1000700065750208657502086575020865750208F0
:1000800065750208657502086575020865750208E0
:1000900065750208657502086575020865750208D0
:1000A00065750208657502086575020865750208C0
:1000B00065750208657502086575020865750208B0
:1000C00065750208657502086575020865750208A0
:1000D0006575020865750208657502086575020890
:1000E00033720208657502086575020865750208B5
:1000F0006575020865750208657502086575020870
:10010000657502086575020865750208657502085F
:100110006575020865750208A97002086575020810
:10012000017102082D7102086575020865750208E3
:100130004571020865750208657502086575020853
:10014000657502086575020865750208657502081F
:100150005171020891710208A971020865750208BF
:1001600065750208657502086575020865750208FF
:1001700065750208BD700208657502080000000080
:1001800065750208657502086575020865750208DF
:1001900065750208657502086575020865750208CF
:1001A000D170020865750208E570020865750208DD
:1001B0006575020865750208D5710208FD710208AF
:1001C0001172020865750208E97102086575020876
:1001D0006575020865750208657502087D7102087B
:1001E000657502086575020865750208657502087F
:0801F00065750208657502083F
:1002000010B5054C237833B9044B13B10448AFF350
:1002100000800123237010BD0006002000000000B4
:100220000451040808B5034B1BB103490348AFF35D
:10023000008008BD000000000406002004510408EE
:100240004B1C012B98BF70472DE9F003911C9B08B4
:10025000B1F80480B1F802900A8831F802CC8044E9
:10026000814402448444D9F80070D8F800601568CD
:10027000DCF80040C9F80060C8F80070CCF8005005
:100280001460D9F80470D8F804605568DCF80440AC
:10029000C9F80460C8F80470CCF804505460083100
:1002A000013BD5D1BDE8F00370474B1C012B98BF33
:1002B00070472DE9F003911C9B08B1F80480B1F858
:1002C00002900A8831F802CC00EB580800EB59097B
:1002D00000EB520200EB5C0CD9F80070D8F800601B
:1002E0001568DCF80040C9F80060C8F80070CCF868
:1002F000005014600831013BDFD1BDE8F0037047C6
:1003000081F0004102E000BF83F0004330B54FEAC6
:1003100041044FEA430594EA050F08BF90EA020F33
:100320001FBF54EA000C55EA020C7FEA645C7FEAC6
:10033000655C00F0E2804FEA5454D4EB5555B8BFE9
:100340006D420CDD2C4480EA020281EA030382EA5A
:10035000000083EA010180EA020281EA0303362DEC
:1003600088BF30BD11F0004F4FEA01314FF4801CBF
:100370004CEA113102D0404261EB410113F0004FD1
:100380004FEA03334CEA133302D0524263EB430388
:1003900094EA050F00F0A780A4F10104D5F1200E26
:1003A0000DDB02FA0EFC22FA05F2801841F1000181
:1003B00003FA0EF2801843FA05F359410EE0A5F155
:1003C00020050EF1200E012A03FA0EFC28BF4CF086
:1003D000020C43FA05F3C01851EBE37101F000453C
:1003E00007D54FF0000EDCF1000C7EEB00006EEB49
:1003F0000101B1F5801F1BD3B1F5001F0CD34908D3
:100400005FEA30004FEA3C0C04F101044FEA445229
:1004100012F5800F80F09A80BCF1004F08BF5FEAB0
:10042000500C50F1000041EB045141EA050130BD90
:100430005FEA4C0C404141EB0101013C28BFB1F5A2
:10044000801FE9D291F0000F04BF01460020B1FAED
:1004500081F308BF2033A3F10B03B3F120020CDAC0
:100460000C3208DD02F1140CC2F10C0201FA0CF09E
:1004700021FA02F10CE002F11402D8BFC2F1200C03
:1004800001FA02F120FA0CFCDCBF41EA0C019040B9
:10049000E41AA2BF01EB0451294330BD6FEA040402
:1004A0001F3C1CDA0C340EDC04F11404C4F12002ED
:1004B00020FA04F001FA02F340EA030021FA04F3FF
:1004C00045EA030130BDC4F10C04C4F1200220FA56
:1004D00002F001FA04F340EA0300294630BD21FA94
:1004E00004F0294630BD94F0000F83F4801306BF5A
:1004F00081F480110134013D4EE77FEA645C18BF4E
:100500007FEA655C29D094EA050F08BF90EA020FE4
:1005100005D054EA000C04BF1946104630BD91EADC
:10052000030F1EBF0021002030BD5FEA545C05D1DF
:100530004000494128BF41F0004130BD14F580041E
:100540003CBF01F5801130BD01F0004545F0FE4192
:1005500041F470014FF0000030BD7FEA645C1ABFC7
:10056000194610467FEA655C1CBF0B46024650EAFE
:10057000013406BF52EA033591EA030F41F400212A
:1005800030BD00BF90F0000F04BF0021704730B5B0
:100590004FF4806404F132044FF000054FF0000185
:1005A00050E700BF90F0000F04BF0021704730B546
:1005B0004FF4806404F1320410F0004548BF40421B
:1005C0004FF000013EE700BF42004FEAE2014FEA70
:1005D00031014FEA02701FBF12F07F4393F07F4F4B
:1005E00081F06051704732F07F4208BF704793F04E
:1005F0007F4F04BF41F40021704730B54FF4607461
:1006000001F0004521F000411CE700BF50EA010263
:1006100008BF704730B54FF000050AE050EA01020C
:1006200008BF704730B511F0004502D5404261EB7C
:1006300041014FF4806404F132045FEA915C3FF4BD
:10064000D8AE4FF003025FEADC0C18BF03325FEA5A
:10065000DC0C18BF033202EBDC02C2F1200300FA0B
:1006600003FC20FA02F001FA03FE40EA0E0021FA30
:1006700002F11444BDE600BF80F0004002E000BF7C
:1006800081F0004142001FBF5FEA410392EA030F7D
:100690007FEA226C7FEA236C6AD04FEA1262D2EBC7
:1006A0001363C1BFD218414048404140B8BF5B42CC
:1006B000192B88BF704710F0004F40F4000020F065
:1006C0007F4018BF404211F0004F41F4000121F07B
:1006D0007F4118BF494292EA030F3FD0A2F10102C5
:1006E00041FA03FC10EB0C00C3F1200301FA03F103
:1006F00000F0004302D5494260EB4000B0F5000F26
:1007000013D3B0F1807F06D340084FEA310102F1E4
:100710000102FE2A51D2B1F1004F40EBC25008BF96
:1007200020F0010040EA03007047490040EB000060
:10073000013A28BFB0F5000FEDD2B0FA80FCACF161
:10074000080CB2EB0C0200FA0CF0AABF00EBC2508E
:1007500052421843BCBFD0401843704792F0000F7C
:1007600081F4000106BF80F400000132013BB5E7CF
:100770004FEA41037FEA226C18BF7FEA236C21D045
:1007800092EA030F04D092F0000F08BF08467047AA
:1007900090EA010F1CBF0020704712F07F4F04D178
:1007A000400028BF40F00040704712F100723CBF8B
:1007B00000F50000704700F0004343F0FE4040F4B5
:1007C000000070477FEA226216BF08467FEA236373
:1007D0000146420206BF5FEA412390EA010F40F45E
:1007E000800070474FF0000304E000BF10F00043AA
:1007F00048BF40425FEA000C08BF704743F0964391
:1008000001464FF000001CE050EA010208BF7047AB
:100810004FF000030AE000BF50EA010208BF704732
:1008200011F0004302D5404261EB41015FEA010C47
:1008300002BF84460146002043F0B64308BFA3F13F
:100840008053A3F50003BCFA8CF2083AA3EBC25321
:1008500010DB01FA02FC634400FA02FCC2F1200240
:10086000BCF1004F20FA02F243EB020008BF20F077
:100870000100704702F1200201FA02FCC2F12002DD
:1008800050EA4C0021FA02F243EB020008BF20EAD2
:10089000DC7070477BB972B90029BEBF00204FF0F1
:1008A000004106E008BF00281CBF6FF000414FF078
:1008B000FF3000F0F5B9ADF1080C6DE904CE002968
:1008C00009DB002B1ADB00F06FF8DDF804E0DDE94E
:1008D000022304B07047404261EB4101002B1BDB57
:1008E00000F062F8DDF804E0DDE9022304B04042E4
:1008F00061EB4101524263EB43037047524263EBA9
:10090000430300F051F8DDF804E0DDE9022304B010
:10091000404261EB41017047524263EB430300F0F8
:1009200043F8DDF804E0DDE9022304B0524263EB52
:100930004303704753B94AB9002908BF00281CBFB8
:100940004FF0FF314FF0FF3000F0AAB9ADF1080CC5
:100950006DE904CE00F028F8DDF804E0DDE90223BB
:1009600004B07047000000009FED0B6B41EC170BCB
:100970009FED0B5B27EE066BBCEEC66BB8EE464BED
:10098000A4EE457BFCEEC77B16EE101A17EE900A1C
:10099000704700BFAFF30080000000000000F03D92
:1009A000000000000000F0412DE9F047089D0F46CF
:1009B00004468C46002B48D18A42164661D9B2FAC9
:1009C00082F34BB1C3F1200201FA03FC20FA02F2D8
:1009D0009E4042EA0C0C9C404FEA164EB7B2BCFB5C
:1009E000FEF1220C0EFB11CC42EA0C4201FB07F097
:1009F000904209D9B21801F1FF3C80F0EE8090429C
:100A000040F2EB8002393244121AA4B2B2FBFEF07B
:100A10000EFB102244EA024400FB07F7A74209D963
:100A2000341900F1FF3280F0DA80A74240F2D7801B
:100A30003444023840EA0140E41B00211DB1DC408F
:100A40000023C5E90043BDE8F0878B4206D90DB10C
:100A5000C5E9000100210846BDE8F087B3FA83F13B
:100A6000002948D1BB4202D3824200F20781841A96
:100A700067EB030201209446002DE4D0C5E9004C49
:100A8000E1E7002A00F09280B2FA82F3002B40F0F6
:100A9000A8808A1A4FEA164E1FFA86FC0121200C04
:100AA000B2FBFEF70EFB172240EA02420CFB07F0F6
:100AB000904207D9B21807F1FF3802D2904200F2F3
:100AC000E2804746121AA4B2B2FBFEF00EFB1022DF
:100AD00044EA02440CFB00FCA44507D9341900F198
:100AE000FF3202D2A44500F2CB801046A4EB0C04E6
:100AF00040EA0740A2E7C1F120068B4022FA06FC3B
:100B00004CEA030C07FA01F420FA06F3F7404FEA27
:100B10001C49234300FA01F81FFA8CFEB7FBF9F0D9
:100B20001C0C09FB107744EA074400FB0EF7A742B0
:100B300002FA01F20AD91CEB040400F1FF3A80F03A
:100B40009B80A74240F2988002386444E41B9FB225
:100B5000B4FBF9F309FB134447EA044403FB0EFE1C
:100B6000A64509D91CEB040403F1FF3780F082800D
:100B7000A6457FD9023B644443EA0040A4EB0E043F
:100B8000A0FB02E7BC427346B94663D360D05DB1B7
:100B9000B8EB030264EB090404FA06F622FA01F347
:100BA0001E43CC40C5E9006400214CE762084808B8
:100BB00042EAC1710B0C43EA00438AB242EA0342A3
:100BC000B3FBF6F1E407B4463746B6461F23B0FB45
:100BD000F6F0D21B41EA004161E7614614E7104696
:100BE00028E7C3F1200120FA01F29E4027FA01F123
:100BF0009F403A434FEA164E1FFA86FCB1FBFEF7C0
:100C00000EFB1710110C41EA004107FB0CF8884558
:100C100004FA03F43AD9711807F1FF3001D288457C
:100C20001FD8A1EB0801B1FBFEF808FB0CF70EFB87
:100C3000181192B242EA0142BA422FD2B21808F118
:100C4000FF31C6D2BA42C4D2A8F102013244C0E791
:100C5000F0459CD2BEEB020367EB0C070138B946A6
:100C600095E7A6EB08084144B81EB1FBFEF808FB67
:100C70000CF7DCE73B467FE7504667E70846FBE6B4
:100C80003444023832E7023F32441BE7A1EB08014B
:100C90003846B1FBFEF808FB0CF7C8E7414698E779
:100CA000704700BF10F8012B11F8013B012A28BF43
:100CB0009A42F7D0D01A70470000000000000000F0
:100CC00001F0FF01102A2BDB10F0070F08D010F8FD
:100CD000013B013A8B422DD010F0070F42B3F6D101
:100CE000F0B441EA012141EA014122F007047FF01A
:100CF00000070023F0E80256083C85EA010586EA71
:100D0000010685FA47F5A3FA87F586FA47F6A5FAAC
:100D100087F68EB9EED1F0BC01F0FF0102F00702B8
:100D200032B110F8013B013A83EA010313B1F8D163
:100D30000020704701387047002D06BF3546033844
:100D4000073815F0010F07D1013015F4807F02BF7D
:100D5000013015F4C03F0130F0BC0138704700BFCE
:100D600080B400AF064BD3F88830054A43F47003D3
:100D7000C2F8883000BFBD465DF8047B704700BFF5
:100D800000ED00E080B582B000AF78607B68002B9A
:100D900001D1012349E07B6893F83D30DBB2002BA1
:100DA00006D17B68002283F83C20786825F0D4FFC8
:100DB0007B68022283F83D207B681A687B680433D5
:100DC0001946104600F0DEF97B68012283F84820BE
:100DD0007B68012283F83E207B68012283F83F2054
:100DE0007B68012283F840207B68012283F8412040
:100DF0007B68012283F842207B68012283F843202C
:100E00007B68012283F844207B68012283F8452017
:100E10007B68012283F846207B68012283F8472003
:100E20007B68012283F83D20002318460837BD4621
:100E300080BD000080B485B000AF78607B6893F817
:100E40003D30DBB2012B01D0012354E07B6802224C
:100E500083F83D207B681B68DA687B681B6842F07A
:100E60000102DA607B681B68264A934222D07B68C5
:100E70001B68B3F1804F1DD07B681B68224A9342E8
:100E800018D07B681B68214A934213D07B681B688B
:100E90001F4A93420ED07B681B681E4A934209D0BA
:100EA0007B681B681C4A934204D07B681B681B4A02
:100EB000934215D17B681B689A68194B1340FB60FD
:100EC000FB68062B15D0FB68B3F5803F11D07B681B
:100ED0001B681A687B681B6842F001021A6008E010
:100EE0007B681B681A687B681B6842F001021A6005
:100EF00000E000BF002318461437BD465DF8047BB0
:100F0000704700BF0000014000040040000800409E
:100F1000000C004000040140004001400018004067
:100F20000700010080B584B000AF78607B681B6863
:100F3000DB68FB607B681B681B69BB60BB6803F0F8
:100F40000203002B20D0FB6803F00203002B1BD010
:100F50007B681B686FF002021A617B6801221A77B6
:100F60007B681B689B6903F00303002B03D0786840
:100F700000F0E9F805E0786800F0DBF8786800F048
:100F8000ECF87B6800221A77BB6803F00403002B9F
:100F900020D0FB6803F00403002B1BD07B681B6888
:100FA0006FF004021A617B6802221A777B681B6863
:100FB0009B6903F44073002B03D0786800F0C3F8FA
:100FC00005E0786800F0B5F8786800F0C6F87B684E
:100FD00000221A77BB6803F00803002B20D0FB68BF
:100FE00003F00803002B1BD07B681B686FF008021E
:100FF0001A617B6804221A777B681B68DB6903F03F
:101000000303002B03D0786800F09DF805E07868B2
:1010100000F08FF8786800F0A0F87B6800221A775B
:10102000BB6803F01003002B20D0FB6803F0100313
:10103000002B1BD07B681B686FF010021A617B6865
:1010400008221A777B681B68DB6903F44073002B66
:1010500003D0786800F077F805E0786800F069F868
:10106000786800F07AF87B6800221A77BB6803F092
:101070000103002B0CD0FB6803F00103002B07D009
:101080007B681B686FF001021A61786816F0D8FA65
:10109000BB6803F08003002B04D1BB6803F400534A
:1010A000002B0CD0FB6803F08003002B07D07B687B
:1010B0001B686FF402521A61786800F013F9BB687C
:1010C00003F48073002B0CD0FB6803F08003002B2B
:1010D00007D07B681B686FF480721A61786800F033
:1010E0000BF9BB6803F04003002B0CD0FB6803F046
:1010F0004003002B07D07B681B686FF040021A6129
:10110000786800F034F8BB6803F02003002B0CD0A3
:10111000FB6803F02003002B07D07B681B686FF08F
:1011200020021A61786800F0D3F800BF1037BD467E
:1011300080BD80B483B000AF786000BF0C37BD467F
:101140005DF8047B704780B483B000AF786000BF67
:101150000C37BD465DF8047B704780B483B000AFA8
:10116000786000BF0C37BD465DF8047B704780B4E3
:1011700083B000AF786000BF0C37BD465DF8047BDC
:101180007047000080B485B000AF786039607B683C
:101190001B68FB607B68434A934213D07B68B3F1C2
:1011A000804F0FD07B68404A93420BD07B683F4A08
:1011B000934207D07B683E4A934203D07B683D4A06
:1011C000934208D1FB6823F07003FB603B685B68C7
:1011D000FA681343FB607B68324A93422BD07B68EA
:1011E000B3F1804F27D07B682F4A934223D07B688E
:1011F0002E4A93421FD07B682D4A93421BD07B68B6
:101200002C4A934217D07B682B4A934213D07B68B9
:101210002A4A93420FD07B68294A93420BD07B68BD
:10122000284A934207D07B68274A934203D07B68C1
:10123000264A934208D1FB6823F44073FB603B6865
:10124000DB68FA681343FB60FB6823F080023B68AD
:101250005B691343FB603B689A687B68DA623B68B2
:101260001A687B689A627B680E4A934203D07B6857
:10127000104A934203D13B681A697B681A637B6802
:101280001B6843F004027B681A607B6801225A6184
:101290007B68FA681A6000BF1437BD465DF8047BAE
:1012A000704700BF000001400004004000080040FB
:1012B000000C004000040140004001400044014097
:1012C0000048014000180040001C00400020004081
:1012D00080B483B000AF786000BF0C37BD465DF8C6
:1012E000047B704780B483B000AF786000BF0C37D8
:1012F000BD465DF8047B704780B483B000AF786072
:1013000000BF0C37BD465DF8047B704780B586B0E2
:1013100000AF78600023FB757B68002B01D10123AF
:101320009BE27B681B6803F00103002B00F08780C1
:10133000964B9B6803F00C03042B0CD0934B9B68DB
:1013400003F00C03082B12D1904B5B6803F480036D
:10135000B3F5800F0BD18D4B1B6803F40033002BCA
:101360006CD07B685B68002B68D1012375E27B68D9
:101370005B68B3F5803F06D1844B1B68834A43F416
:10138000803313602EE07B685B68002B0CD17F4BB1
:101390001B687E4A23F4803313607C4B1B687B4AB6
:1013A00023F4802313601DE07B685B68B3F5A02FF6
:1013B0000CD1764B1B68754A43F480231360734B42
:1013C0001B68724A43F4803313600BE06F4B1B6859
:1013D0006E4A23F4803313606C4B1B686B4A23F412
:1013E000802313607B685B68002B13D002F01AFD2A
:1013F000386108E002F016FD02463B69D31A642BFF
:1014000001D9032329E2614B1B6803F40033002B4D
:10141000F0D014E002F006FD386108E002F002FDB1
:1014200002463B69D31A642B01D9032315E2574BBB
:101430001B6803F40033002BF0D100E000BF7B6891
:101440001B6803F00203002B69D0504B9B6803F02C
:101450000C03002B0BD04D4B9B6803F00C03082BA7
:101460001CD14A4B5B6803F48003002B16D1474B19
:101470001B6803F00203002B05D07B68DB68012B9F
:1014800001D00123E9E1414B1B6823F0F8027B689E
:101490001B69DB003D4913430B6040E07B68DB6860
:1014A000002B23D0394B1B68384A43F001031360EB
:1014B00002F0B8FC386108E002F0B4FC02463B6977
:1014C000D31A022B01D90323C7E1304B1B6803F069
:1014D0000203002BF0D02D4B1B6823F0F8027B6831
:1014E0001B69DB00294913430B6018E0274B1B687D
:1014F000264A23F00103136002F094FC386108E0EF
:1015000002F090FC02463B69D31A022B01D9032357
:10151000A3E11E4B1B6803F00203002BF0D17B6894
:101520001B6803F00803002B38D07B685B69002B35
:1015300019D0164B5B6F154A43F00103536702F055
:1015400071FC386108E002F06DFC02463B69D31A79
:10155000022B01D9032380E10C4B5B6F03F00203E4
:10156000002BF0D01AE0094B5B6F084A23F001030F
:10157000536702F057FC38610AE002F053FC024660
:101580003B69D31A022B03D9032366E100380240DA
:10159000924B5B6F03F00203002BEED17B681B685C
:1015A00003F00403002B00F0A4808C4B1B6C03F0B1
:1015B0008053002B0DD1894B1B6C884A43F080531C
:1015C0001364864B1B6C03F08053BB60BB68012324
:1015D000FB75834B1B6803F48073002B18D1804B81
:1015E0001B687F4A43F48073136002F01BFC386170
:1015F00008E002F017FC02463B69D31A642B01D9BC
:1016000003232AE1764B1B6803F48073002BF0D090
:101610007B689B68012B06D1704B1B6F6F4A43F0B0
:10162000010313672DE07B689B68002B0CD16B4B8B
:101630001B6F6A4A23F001031367684B1B6F674AED
:1016400023F0040313671CE07B689B68052B0CD117
:10165000624B1B6F614A43F0040313675F4B1B6FC0
:101660005E4A43F0010313670BE05C4B1B6F5B4A60
:1016700023F001031367594B1B6F584A23F00403EF
:1016800013677B689B68002B15D002F0CBFB386199
:101690000AE002F0C7FB02463B69D31A41F28832E6
:1016A000934201D90323D8E04C4B1B6F03F0020394
:1016B000002BEED014E002F0B5FB38610AE002F036
:1016C000B1FB02463B69D31A41F28832934201D9F9
:1016D0000323C2E0414B1B6F03F00203002BEED14A
:1016E000FB7D012B05D13D4B1B6C3C4A23F0805305
:1016F00013647B689B69002B00F0AE80374B9B68BE
:1017000003F00C03082B6DD07B689B69022B4BD137
:10171000324B1B68314A23F08073136002F082FB66
:10172000386108E002F07EFB02463B69D31A022BC7
:1017300001D9032391E0294B1B6803F00073002BB0
:10174000F0D17B68DA697B681B6A1A437B685B6A45
:101750009B011A437B689B6A5B08013B1B041A438D
:101760007B68DB6A1B061A437B681B6B1B071B49E4
:1017700013434B60194B1B68184A43F08073136086
:1017800002F050FB386108E002F04CFB02463B6976
:10179000D31A022B01D903235FE0104B1B6803F01F
:1017A0000073002BF0D057E00C4B1B680B4A23F062
:1017B0008073136002F036FB386108E002F032FB00
:1017C00002463B69D31A022B01D9032345E0034BA0
:1017D0001B6803F00073002BF0D13DE0003802409D
:1017E000007000401F4B5B68FB607B689B69012BAE
:1017F00030D0FB6803F480027B68DB699A4229D110
:10180000FB6803F03F027B681B6A9A4222D1FA68A8
:1018100047F6C07313407A68526A9201934219D115
:10182000FB6803F440327B689B6A5B08013B1B0446
:101830009A420FD1FB6803F070627B68DB6A1B067B
:101840009A4207D1FB6803F0E0427B681B6B1B07E1
:101850009A4201D0012300E0002318461837BD4604
:1018600080BD00BF0038024080B584B000AF786012
:1018700039600023FB607B68002B01D10123D0E09D
:101880006A4B1B6803F00F033A689A4210D9674B02
:101890001B6823F00F0265493B6813430B60634BE1
:1018A0001B6803F00F033A689A4201D00123B8E0A5
:1018B0007B681B6803F00203002B20D07B681B6849
:1018C00003F00403002B05D0594B9B68584A43F49E
:1018D000E05393607B681B6803F00803002B05D07E
:1018E000534B9B68524A43F460439360504B9B6850
:1018F00023F0F0027B689B684D4913438B607B6843
:101900001B6803F00103002B40D07B685B68012B50
:1019100007D1474B1B6803F40033002B15D101237B
:101920007FE07B685B68022B07D1414B1B6803F0AB
:101930000073002B09D1012373E03D4B1B6803F0BA
:101940000203002B01D101236BE0394B9B6823F08C
:1019500003027B685B68364913438B6002F062FACE
:10196000F8600AE002F05EFA0246FB68D31A41F220
:101970008832934201D9032353E02D4B9B6803F037
:101980000C027B685B689B009A42EBD1274B1B687B
:1019900003F00F033A689A4210D2244B1B6823F0DD
:1019A0000F0222493B6813430B60204B1B6803F076
:1019B0000F033A689A4201D0012332E07B681B682A
:1019C00003F00403002B08D0194B9B6823F4E0526A
:1019D0007B68DB68164913438B607B681B6803F0E8
:1019E0000803002B09D0124B9B6823F460427B68EC
:1019F0001B69DB000E4913438B6000F085F802463B
:101A00000B4B9B681B0903F00F030A49CB5C22FABE
:101A100003F3094A1360094B1B68184625F03AFC8A
:101A2000002318461037BD4680BD00BF003C024071
:101A300000380240706704080400002008000020FD
:101A400080B58CB000AFF860B9607A60FB68002B9D
:101A500027D12A4B1B6B294A43F001031363274B01
:101A60001B6B03F00103BB61BB694FF48073FB6127
:101A700002233B620323BB6200237B620023FB62E1
:101A800007F11C0319461E4801F00EF81B4B9B681A
:101A900023F0EC62B9687B680B43184913438B60F1
:101AA00027E0164B1B6B154A43F004031363134BDB
:101AB0001B6B03F004037B617B694FF40073FB61D4
:101AC00002233B620323BB6200237B620023FB6291
:101AD00007F11C0319460B4800F0E6FF074B9B6813
:101AE00023F078427B68D900BB680B43034913435A
:101AF0008B6000BF3037BD4680BD00BF003802405C
:101B000000000240000802402DE9B04F90B000AF45
:101B100000237B630023FB6300233B630023BB6341
:101B2000584B9B6803F00C03082B0DD0082B00F2D8
:101B3000A080002B02D0042B03D09AE0524BBB6351
:101B40009AE0524BBB6397E04E4B5B6803F03F0358
:101B50007B634C4B5B6803F48003002B27D0494B1D
:101B60005B689B0900223B627A623B6AC3F3080010
:101B70000021464B03FB01F2002300FB03F3134457
:101B8000424AA0FB0221F962BA62FA6A1344FB627C
:101B90007B6B0022BB61FA61D7E90623D7E90A0112
:101BA000FEF7C8FE02460B461346FB6353E0354B77
:101BB0005B689B0900223B617A613B69C3F3080AB9
:101BC0004FF0000B52465B464FF000004FF0000113
:101BD000590141EAD261500102460B46B2EB0A08B4
:101BE00063EB0B094FF000024FF000034FEA89133B
:101BF00043EA98634FEA8812B2EB080463EB0905E5
:101C00004FF000024FF00003EB0043EA5473E20090
:101C100014461D4614EB0A033B6045EB0B037B6047
:101C20004FF000024FF00003D7E9004529468B0230
:101C3000214643EA915321468A02104619467B6B9E
:101C40000022BB60FA60D7E90223FEF773FE02466A
:101C50000B461346FB630B4B5B681B0C03F0030343
:101C600001335B003B63FA6B3B6BB2FBF3F3BB638B
:101C700002E0054BBB6300BFBB6B18464037BD4657
:101C8000BDE8B08F003802400024F40040787D01A8
:101C900080B400AF034B1B681846BD465DF8047B5B
:101CA000704700BF0400002080B500AFFFF7F0FFD1
:101CB0000246054B9B689B0A03F007030349CB5C74
:101CC00022FA03F3184680BD0038024080670408FA
:101CD00080B483B000AF786039607B680F221A60EF
:101CE000124B9B6803F003027B685A600F4B9B68A2
:101CF00003F0F0027B689A600C4B9B6803F4E0529F
:101D00007B68DA60094B9B68DB0803F4E0527B6870
:101D10001A61074B1B6803F00F023B681A6000BF93
:101D20000C37BD465DF8047B704700BF00380240A9
:101D3000003C024080B588B000AF786000237B6132
:101D400000233B610023FB600023FB610023BB6198
:101D50007B681B6803F00103002B12D0694B9B6862
:101D6000684A23F400039360664B9A687B685B6B58
:101D7000644913438B607B685B6B002B01D10123AB
:101D8000FB617B681B6803F40023002B17D05D4BBD
:101D9000D3F88C3023F440127B68DB6B5949134332
:101DA000C1F88C307B68DB6BB3F5801F01D1012358
:101DB000FB617B68DB6B002B01D10123BB617B687E
:101DC0001B6803F48013002B17D04E4BD3F88C30D4
:101DD00023F440027B681B6C4A491343C1F88C30E2
:101DE0007B681B6CB3F5800F01D10123FB617B681D
:101DF0001B6C002B01D10123BB617B681B6803F0C6
:101E00008073002B01D00123FB617B681B6803F00A
:101E10002003002B00F08B803A4B1B6C394A43F0B7
:101E200080531364374B1B6C03F08053BB60BB685B
:101E3000354B1B68344A43F48073136001F0F2FFA2
:101E4000786108E001F0EEFF02467B69D31A642B4B
:101E500001D903238FE32C4B1B6803F48073002B01
:101E6000F0D0284B1B6F03F440733B613B69002BA0
:101E700035D07B681B6B03F440733A699A422ED0CD
:101E8000204B1B6F23F440733B611E4B1B6F1D4A9D
:101E900043F4803313671B4B1B6F1A4A23F48033C0
:101EA0001367184A3B691367164B1B6F03F0010356
:101EB000012B14D101F0B6FF78610AE001F0B2FF06
:101EC00002467B69D31A41F28832934201D9032337
:101ED00051E30C4B1B6F03F00203002BEED07B6829
:101EE0001B6B03F44073B3F5407F11D1054B9B6826
:101EF00023F4F8127B68196B044B0B400149134320
:101F00008B600BE00038024000700040FFFCFF0FC8
:101F1000AC4B9B68AB4A23F4F8139360A94B1A6F40
:101F20007B681B6BC3F30B03A64913430B677B68EA
:101F30001B6803F01003002B10D0A24BD3F88C3099
:101F4000A04A23F08073C2F88C309E4BD3F88C20CB
:101F50007B689B6B9B491343C1F88C307B681B6883
:101F600003F48043002B0AD0964BD3F8903023F42F
:101F700040327B685B6E93491343C1F890307B68B5
:101F80001B6803F40043002B0AD08E4BD3F890302B
:101F900023F440227B689B6E8A491343C1F890303A
:101FA0007B681B6803F48033002B0AD0854BD3F881
:101FB000903023F440127B68DB6E82491343C1F8F2
:101FC00090307B681B6803F40033002B0AD07D4BF4
:101FD000D3F8903023F440027B681B6F7949134398
:101FE000C1F890307B681B6803F04003002B0AD0D7
:101FF000744BD3F8903023F003027B685B6C71491B
:102000001343C1F890307B681B6803F08003002BFA
:102010000AD06C4BD3F8903023F00C027B689B6C99
:1020200068491343C1F890307B681B6803F48073E0
:10203000002B0AD0634BD3F8903023F030027B683A
:10204000DB6C60491343C1F890307B681B6803F474
:102050000073002B0AD05B4BD3F8903023F0C00202
:102060007B681B6D57491343C1F890307B681B6830
:1020700003F48063002B0AD0524BD3F8903023F442
:1020800040727B685B6D4F491343C1F890307B68A9
:102090001B6803F40063002B0AD04A4BD3F890303E
:1020A00023F440627B689B6D46491343C1F890302E
:1020B0007B681B6803F48053002B0AD0414BD3F894
:1020C000903023F440527B68DB6D3E491343C1F8E6
:1020D00090307B681B6803F40053002B0AD0394B07
:1020E000D3F8903023F440427B681B6E354913438C
:1020F000C1F890307B681B6803F48003002B0AD082
:10210000304BD3F8903023F080627B689B6F2D4971
:102110001343C1F890307B681B6803F40013002B55
:1021200011D0284BD3F8903023F000627B68DB6F2E
:1021300024491343C1F890307B68DB6FB3F1006F23
:1021400001D10123BB617B681B6803F00803002BEE
:1021500001D00123BB617B681B6803F48023002B43
:102160000AD0184BD3F8903023F040727B685B6F35
:1021700014491343C1F890307B681B6803F40003D3
:10218000002B0BD00F4BD3F8903023F080527B689C
:10219000D3F880300B491343C1F890307B681B683B
:1021A00003F08063002B0FD0064BD3F8903023F060
:1021B00000527B68D3F8843002491343C1F8903051
:1021C00002E000BF003802407B681B6803F0006338
:1021D000002B0BD08A4BD3F88C3023F000727B6835
:1021E000D3F8883086491343C1F88C307B681B686C
:1021F00003F08053002B0BD0814BD3F88C3023F0AD
:1022000080627B68D3F88C307D491343C1F88C30F1
:10221000FB69012B06D07B681B6803F00073002B61
:1022200000F0D680764B1B68754A23F080631360FC
:1022300001F0F8FD786108E001F0F4FD02467B69E9
:10224000D31A642B01D9032395E16D4B1B6803F06E
:102250000063002BF0D17B681B6803F00103002BA7
:1022600021D07B685B6B002B1DD1654BD3F884308C
:102270001B0C03F003033B61614BD3F884301B0E4E
:1022800003F00F03FB607B685B689A013B691B04EA
:102290001A43FB681B061A437B689B681B07584957
:1022A0001343C1F884307B681B6803F40023002BC0
:1022B00004D07B68DB6BB3F5801F0AD07B681B689A
:1022C00003F48013002B2ED07B681B6CB3F5800FBA
:1022D00029D14B4BD3F884301B0C03F003033B6133
:1022E000474BD3F884301B0F03F00703FB607B6878
:1022F0005B689A013B691B041A437B68DB681B0619
:102300001A43FB681B073E491343C1F884303C4B1A
:10231000D3F88C3023F01F027B685B6A013B38499D
:102320001343C1F88C307B681B6803F08073002B6B
:102330001DD0334BD3F884301B0E03F00F033B61E9
:102340002F4BD3F884301B0F03F00703FB607B682F
:102350005B689A017B681B691B041A433B691B0677
:102360001A43FB681B0726491343C1F884307B6876
:102370001B6803F00073002B11D07B685B689A0127
:102380007B681B691B041A437B68DB681B061A43C6
:102390007B689B681B071A491343C1F88430184BAC
:1023A0001B68174A43F08063136001F03BFD7861BE
:1023B00008E001F037FD02467B69D31A642B01D98E
:1023C0000323D8E00E4B1B6803F00063002BF0D012
:1023D000BB69012B40F0CE80094B1B68084A23F0F3
:1023E0008053136001F01EFD78610BE001F01AFDCF
:1023F00002467B69D31A642B04D90323BBE000BFD8
:10240000003802405E4B1B6803F00053B3F1005FDD
:10241000ECD07B681B6803F40023002B03D07B689F
:10242000DB6B002B09D07B681B6803F48013002B47
:102430002ED07B681B6C002B2AD1514BD3F88830EF
:102440001B0C03F003033B614D4BD3F888301B0F8B
:1024500003F00703FB607B685B699A013B691B041F
:102460001A437B689B691B061A43FB681B07444998
:102470001343C1F88830424BD3F88C3023F4F85220
:102480007B689B6A013B1B023D491343C1F88C30BA
:102490007B681B6803F40013002B22D07B68DB6F82
:1024A000B3F1006F1DD1364BD3F888301B0E03F00B
:1024B0000F033B61324BD3F888301B0F03F0070347
:1024C000FB607B685B699A017B681B6A1B041A438B
:1024D0003B691B061A43FB681B0729491343C1F8D4
:1024E00088307B681B6803F00803002B28D0244B3E
:1024F000D3F888301B0E03F00F033B61204BD3F859
:1025000088301B0C03F00303FB607B685B699A0156
:10251000FB681B041A433B691B061A437B68DB6993
:102520001B0717491343C1F88830154BD3F88C307B
:1025300023F440327B68DB6A11491343C1F88C30C5
:102540000F4B1B680E4A43F08053136001F06AFC86
:10255000786108E001F066FC02467B69D31A642BBF
:1025600001D9032307E0064B1B6803F00053B3F1C6
:10257000005FEFD1002318462037BD4680BD00BF65
:102580000038024080B485B000AF78600023FB6063
:102590007B688C4A1A608C4BD3F884309B09C3F358
:1025A00008027B685A60884BD3F884301B0C03F018
:1025B00003027B681A61844BD3F884301B0E03F04E
:1025C0000F027B68DA60804BD3F884301B0F03F076
:1025D00007027B689A607C4BD3F888309B09C3F371
:1025E00008027B685A61784BD3F888301B0C03F0E3
:1025F00003027B681A62744BD3F888301B0E03F019
:102600000F027B689A61704BD3F888301B0F03F080
:1026100007027B68DA616C4BD3F88C3003F01F0241
:102620007B685A62684BD3F88C301B0A03F01F0298
:102630007B689A62644BD3F88C301B0C03F0030266
:102640007B68DA62604BD3F88C3003F440127B680D
:10265000DA635D4BD3F88C3003F440027B681A6474
:10266000594B9B6803F400027B685A63564BD3F8BE
:10267000903003F440327B685A66534BD3F8903065
:1026800003F440227B689A664F4BD3F8903003F4F2
:1026900040127B68DA664C4BD3F8903003F440026A
:1026A0007B681A67484BD3F8903003F003027B68CD
:1026B0005A64454BD3F8903003F00C027B689A645F
:1026C000414BD3F8903003F030027B68DA643E4B24
:1026D000D3F8903003F0C0027B681A653A4BD3F808
:1026E000903003F440727B685A65374BD3F89030D2
:1026F00003F440627B689A65334BD3F8903003F45F
:1027000040527B68DA65304BD3F8903003F4404296
:102710007B681A662C4BD3F8903003F040727B68CC
:102720005A67294BD3F8903003F080627B689A6730
:10273000254BD3F8903003F000627B68DA67224BB8
:10274000D3F8903003F080527B68C3F880201E4B92
:10275000D3F8903003F000527B68C3F884201A4B02
:10276000D3F88C3003F000727B68C3F88820164BD6
:10277000D3F88C3003F080627B68C3F88C20124B56
:102780009B6803F4F813FB600F4B1B6F03F440725C
:10279000FB681A437B681A630B4BD3F88C3003F049
:1027A0008073002B03D17B6800229A6303E07B686F
:1027B0004FF080729A6300BF1437BD465DF8047B0A
:1027C000704700BFF1FFFF1C0038024080B487B0A3
:1027D00000AF78600023FB6000237B6100233B6136
:1027E0000023BB607B68B3F5002F40F0A480A64BAC
:1027F000D3F88C30BB60BB6803F44013BB60BB688C
:10280000B3F5401F00F08A80BB68B3F5401F00F2AB
:102810009180BB68B3F5001F7DD0BB68B3F5001F86
:1028200000F28880BB68002B04D0BB68B3F5801F22
:1028300039D07FE0944B5B6803F48003002B08D110
:10284000914B5B6803F03F03904AB2FBF3F33B61AB
:1028500007E08D4B5B6803F03F038D4AB2FBF3F357
:102860003B61894BD3F888301B0E03F00F03FB60EC
:10287000854BD3F888309B09C3F308033A6903FBFF
:1028800002F2FB68B2FBF3F37B617F4BD3F88C3031
:102890001B0A03F01F030133FB607A69FB68B2FB7C
:1028A000F3F37B6147E0784B5B6803F48003002B14
:1028B00008D1754B5B6803F03F03744AB2FBF3F336
:1028C0003B6107E0704B5B6803F03F03704AB2FB6B
:1028D000F3F33B616C4BD3F884301B0E03F00F0312
:1028E000FB60694BD3F884309B09C3F308033A6952
:1028F00003FB02F2FB68B2FBF3F37B61624BD3F89C
:102900008C3003F01F030133FB607A69FB68B2FB74
:10291000F3F37B610FE05F4B7B610CE05A4B5B682C
:1029200003F48003002B02D1584B7B6103E0584B2A
:102930007B6100E000BF7B68B3F5801F40F0AD8095
:10294000514BD3F88C30BB60BB6803F44003BB60D1
:10295000BB68B3F5400F00F08A80BB68B3F5400F49
:1029600000F29A80BB68B3F5000F7DD0BB68B3F569
:10297000000F00F29180BB68002B04D0BB68B3F558
:10298000800F39D088E0404B5B6803F48003002B54
:1029900008D13D4B5B6803F03F033C4AB2FBF3F3C5
:1029A0003B6107E0384B5B6803F03F03384AB2FBFA
:1029B000F3F33B61344BD3F888301B0E03F00F0365
:1029C000FB60314BD3F888309B09C3F308033A69A5
:1029D00003FB02F2FB68B2FBF3F37B612A4BD3F8F3
:1029E0008C301B0A03F01F030133FB607A69FB681C
:1029F000B2FBF3F37B6150E0234B5B6803F480038D
:102A0000002B08D1204B5B6803F03F031F4AB2FB49
:102A1000F3F33B6107E01C4B5B6803F03F031C4A88
:102A2000B2FBF3F33B61184BD3F884301B0E03F079
:102A30000F03FB60144BD3F884309B09C3F30803E6
:102A40003A6903FB02F2FB68B2FBF3F37B610E4BC6
:102A5000D3F88C3003F01F030133FB607A69FB6805
:102A6000B2FBF3F37B6118E00A4B7B6115E0064B88
:102A70005B6803F48003002B02D1044B7B610CE004
:102A8000034B7B6109E000BF003802400024F400E2
:102A900040787D010080BB0000BF7B6918461C3771
:102AA000BD465DF8047B704780B489B000AF7860A4
:102AB00039600023FB6100237B6100233B6100231D
:102AC000BB610023FB6175E10122FB6902FA03F39C
:102AD0007B613B681B687A6913403B613A697B699B
:102AE0009A4240F064813B685B6803F00303012B6A
:102AF00005D03B685B6803F00303022B30D17B6891
:102B00009B68BB61FB695B00032202FA03F3DB43B2
:102B1000BA691340BB613B68DA68FB695B0002FA83
:102B200003F3BA691343BB617B68BA699A607B6837
:102B30005B68BB610122FB6902FA03F3DB43BA69FC
:102B40001340BB613B685B681B0903F00102FB6932
:102B500002FA03F3BA691343BB617B68BA695A602E
:102B60003B685B6803F00303032B17D07B68DB68CB
:102B7000BB61FB695B00032202FA03F3DB43BA6922
:102B80001340BB613B689A68FB695B0002FA03F380
:102B9000BA691343BB617B68BA69DA603B685B68FA
:102BA00003F00303022B23D1FB69DA087B680832A8
:102BB00053F82230BB61FB6903F007039B000F222F
:102BC00002FA03F3DB43BA691340BB613B681A693D
:102BD000FB6903F007039B0002FA03F3BA6913438E
:102BE000BB61FB69DA087B680832B96943F82210D7
:102BF0007B681B68BB61FB695B00032202FA03F37D
:102C0000DB43BA691340BB613B685B6803F00302B6
:102C1000FB695B0002FA03F3BA691343BB617B688B
:102C2000BA691A603B685B6803F44033002B00F01C
:102C3000BE80664B5B6C654A43F480435364634BD0
:102C40005B6C03F48043FB60FB68614AFB699B0893
:102C5000023352F82330BB61FB6903F003039B008E
:102C60000F2202FA03F3DB43BA691340BB617B68AE
:102C7000584A934237D07B68574A934231D07B6899
:102C8000564A93422BD07B68554A934225D07B68A5
:102C9000544A93421FD07B68534A934219D07B68B1
:102CA000524A934213D07B68514A93420DD07B68BD
:102CB000504A934207D07B684F4A934201D109237F
:102CC00012E00A2310E008230EE007230CE006239D
:102CD0000AE0052308E0042306E0032304E00223BE
:102CE00002E0012300E00023FA6902F003029200EF
:102CF0009340BA691343BB613549FB699B080233B2
:102D0000BA6941F823203D4B9B68BB613B69DB43BB
:102D1000BA691340BB613B685B6803F48013002B06
:102D200003D0BA693B691343BB61344ABB69936002
:102D3000324BDB68BB613B69DB43BA691340BB6163
:102D40003B685B6803F40013002B03D0BA693B694E
:102D50001343BB61294ABB69D360284B5B68BB61E5
:102D60003B69DB43BA691340BB613B685B6803F4B2
:102D70000033002B03D0BA693B691343BB611F4A80
:102D8000BB6953601D4B1B68BB613B69DB43BA6980
:102D90001340BB613B685B6803F48033002B03D0B6
:102DA000BA693B691343BB61144ABB691360FB6991
:102DB0000133FB61FB690F2B7FF686AE00BF00BFBE
:102DC0002437BD465DF8047B704700BF00380240E1
:102DD00000380140000002400004024000080240A8
:102DE000000C024000100240001402400018024093
:102DF000001C02400020024000240240003C014030
:102E000080B487B000AF7860396000233B61002355
:102E1000FB600023BB6000237B61D9E001227B695A
:102E200002FA03F33B613A683B691340FB60FA68BE
:102E30003B699A4240F0C9806B4A7B699B08023328
:102E400052F82330BB607B6903F003039B000F2221
:102E500002FA03F3BA681340BB607B68634A93428B
:102E600037D07B68624A934231D07B68614A934293
:102E70002BD07B68604A934225D07B685F4A93429F
:102E80001FD07B685E4A934219D07B685D4A9342AB
:102E900013D07B685C4A93420DD07B685B4A9342B7
:102EA00007D07B685A4A934201D1092312E00A23D2
:102EB00010E008230EE007230CE006230AE00523B8
:102EC00008E0042306E0032304E0022302E00123D8
:102ED00000E000237A6902F0030292009340BA688E
:102EE0009A4232D14B4B1A68FB68DB434949134085
:102EF0000B60484B5A68FB68DB43464913404B6004
:102F0000444BDA68FB68DB4342491340CB60414BDA
:102F10009A68FB68DB433F4913408B607B6903F091
:102F200003039B000F2202FA03F3BB602E4A7B6966
:102F30009B08023352F82310BB68DA432A487B69A6
:102F40009B080A40023340F823207B681A687B699B
:102F50005B00032101FA03F3DB431A407B681A602C
:102F60007B69DA087B68083253F822107B6903F02A
:102F700007039B000F2202FA03F3DB437A69D208AE
:102F800019407B68083243F822107B68DA687B6955
:102F90005B00032101FA03F3DB431A407B68DA602C
:102FA0007B685A6801217B6901FA03F3DB431A400D
:102FB0007B685A607B689A687B695B00032101FA31
:102FC00003F3DB431A407B689A607B6901337B61C2
:102FD0007B690F2B7FF622AF00BF00BF1C37BD46B9
:102FE0005DF8047B704700BF0038014000000240DC
:102FF0000004024000080240000C024000100240A1
:103000000014024000180240001C02400020024050
:1030100000240240003C014080B485B000AF7860DD
:103020000B467B807B681A697B881340002B02D09B
:103030000123FB7301E00023FB73FB7B184614376D
:10304000BD465DF8047B704780B483B000AF786004
:103050000B467B8013467B707B78002B03D07A88ED
:103060007B689A6103E07B881A047B689A6100BFE1
:103070000C37BD465DF8047B7047000080B582B018
:1030800000AF0346FB80084B5A69FB881340002BB6
:1030900006D0054AFB885361FB88184621F09CFE48
:1030A00000BF0837BD4680BD003C014080B586B0FA
:1030B00000AF786000237B6100F0B4FE38617B686C
:1030C000002B01D1012399E07B68022283F835208F
:1030D0007B68002283F834207B681B681A687B6851
:1030E0001B6822F001021A600FE000F09BFE02460E
:1030F0003B69D31A052B08D97B6820225A657B6867
:10310000032283F83520032378E07B681B681B6863
:1031100003F00103002BE8D17B681B681B687B610F
:103120007A69384B13407B617B685A687B689B687F
:103130001A437B68DB681A437B681B691A437B6808
:103140005B691A437B689B691A437B68DB691A4396
:103150007B681B6A13437A6913437B617B685B6AF4
:10316000042B07D17B68DA6A7B681B6B13437A698F
:1031700013437B617B681B687A691A607B681B68F4
:103180005B697B617B6923F007037B617B685B6A1A
:103190007A6913437B617B685B6A042B17D17B6878
:1031A0009B6A7A6913437B617B68DB6A002B0ED0D4
:1031B000786800F081FB0346002B08D07B68402232
:1031C0005A657B68002283F83520012316E07B686E
:1031D0001B687A695A61786800F038FB0346FB6027
:1031E0007B68DB6D3F229A40FB689A607B68002217
:1031F0005A657B68012283F835200023184618376A
:10320000BD4680BD3F8010E080B584B000AF7860DF
:103210007B68002B01D1012350E07B6893F83530A7
:10322000DBB2022B01D1022348E07B681B681A68DD
:103230007B681B6822F001021A607B681B68002211
:103240001A607B681B6800225A607B681B6800223A
:103250009A607B681B680022DA607B681B6800222A
:103260001A617B681B6821225A61786800F0EEFAC7
:103270000346FB607B68DB6D3F229A40FB689A60E7
:103280007B680022DA637B6800221A647B68002274
:103290005A647B6800229A647B680022DA647B6847
:1032A00000221A657B6800225A657B68002283F839
:1032B00035207B68002283F834200023184610371D
:1032C000BD4680BD80B586B000AFF860B9607A6059
:1032D0003B600023FB75FB689B6D3B61FB6893F8CB
:1032E0003430012B01D1022348E0FB68012283F82E
:1032F0003420FB6893F83530DBB2012B37D1FB6803
:10330000022283F83520FB6800225A653B687A6800
:10331000B968F86800F06CFAFB68DB6D3F229A40F0
:103320003B699A60FB681B681A68FB681B6842F07F
:1033300016021A60FB681B685A69FB681B6842F03A
:1033400080025A61FB681B6C002B07D0FB681B686E
:103350001A68FB681B6842F008021A60FB681B6869
:103360001A68FB681B6842F001021A6005E0FB68FE
:10337000002283F834200223FB75FB7D18461837A2
:10338000BD4680BD80B584B000AF78607B689B6D22
:10339000FB6000F047FDB8607B6893F83530DBB226
:1033A000022B08D07B6880225A657B68002283F854
:1033B0003420012352E07B681B681A687B681B6815
:1033C00022F016021A607B681B685A697B681B68CA
:1033D00022F080025A617B681B6C002B03D17B6852
:1033E0009B6C002B07D07B681B681A687B681B6886
:1033F00022F008021A607B681B681A687B681B68E9
:1034000022F001021A6013E000F00CFD0246BB68D6
:10341000D31A052B0CD97B6820225A657B680322BE
:1034200083F835207B68002283F83420032315E0DD
:103430007B681B681B6803F00103002BE4D17B68E9
:10344000DB6D3F229A40FB689A607B68012283F81B
:1034500035207B68002283F834200023184610377B
:10346000BD4680BD80B483B000AF78607B6893F8C0
:103470003530DBB2022B04D07B6880225A650123F1
:103480000CE07B68052283F835207B681B681A688E
:103490007B681B6822F001021A60002318460C3773
:1034A000BD465DF8047B704780B586B000AF78609C
:1034B0000023BB608E4B1B688E4AA2FB03239B0A32
:1034C0007B617B689B6D3B613B691B68FB607B6834
:1034D000DB6D08229A40FB681340002B1AD07B68F2
:1034E0001B681B6803F00403002B13D07B681B6868
:1034F0001A687B681B6822F004021A607B68DB6D27
:1035000008229A403B699A607B685B6D43F0010238
:103510007B685A657B68DB6D01229A40FB6813402B
:10352000002B12D07B681B685B6903F08003002BC3
:103530000BD07B68DB6D01229A403B699A607B6807
:103540005B6D43F002027B685A657B68DB6D042289
:103550009A40FB681340002B12D07B681B681B68E5
:1035600003F00203002B0BD07B68DB6D04229A4032
:103570003B699A607B685B6D43F004027B685A6527
:103580007B68DB6D10229A40FB681340002B43D010
:103590007B681B681B6803F00803002B3CD07B682A
:1035A000DB6D10229A403B699A607B681B681B6840
:1035B00003F48023002B18D07B681B681B6803F47E
:1035C0000023002B08D17B681B6C002B24D07B6868
:1035D0001B6C786898471FE07B689B6C002B1BD0A6
:1035E0007B689B6C7868984716E07B681B681B6853
:1035F00003F48073002B07D17B681B681A687B6813
:103600001B6822F008021A607B681B6C002B03D039
:103610007B681B6C786898477B68DB6D20229A403A
:10362000FB681340002B00F08F807B681B681B68D1
:1036300003F01003002B00F087807B68DB6D2022F5
:103640009A403B699A607B6893F83530DBB2052B72
:1036500036D17B681B681A687B681B6822F01602EB
:103660001A607B681B685A697B681B6822F08002BD
:103670005A617B681B6C002B03D17B689B6C002B11
:1036800007D07B681B681A687B681B6822F00802F9
:103690001A607B68DB6D3F229A403B699A607B68C9
:1036A000012283F835207B68002283F834207B6870
:1036B0001B6D002B7ED07B681B6D7868984779E086
:1036C0007B681B681B6803F48023002B1DD07B687C
:1036D0001B681B6803F40023002B0DD17B685B6C17
:1036E000002B31D07B685B6C786898472CE000BF7A
:1036F00004000020B5814E1B7B68DB6B002B23D0C0
:103700007B68DB6B786898471EE07B681B681B68EA
:1037100003F48073002B0FD17B681B681A687B68E9
:103720001B6822F010021A607B68012283F83520A2
:103730007B68002283F834207B68DB6B002B03D08E
:103740007B68DB6B786898477B685B6D002B32D0B9
:103750007B685B6D03F00103002B22D07B680522A0
:1037600083F835207B681B681A687B681B6822F029
:1037700001021A60BB680133BB607A699A4207D3C1
:103780007B681B681B6803F00103002BF2D100E08B
:1037900000BF7B68012283F835207B68002283F814
:1037A00034207B68DB6C002B05D07B68DB6C786891
:1037B000984700E000BF1837BD4680BD80B483B095
:1037C00000AF78607B6893F83530DBB218460C3771
:1037D000BD465DF8047B704780B483B000AF78606D
:1037E0007B685B6D18460C37BD465DF8047B7047FF
:1037F00080B485B000AFF860B9607A603B60FB6868
:103800001B681A68FB681B6822F480221A60FB6838
:103810001B683A685A60FB689B68402B08D1FB68BC
:103820001B687A689A60FB681B68BA68DA6007E010
:10383000FB681B68BA689A60FB681B687A68DA6084
:1038400000BF1437BD465DF8047B704780B485B077
:1038500000AF78607B681B68DBB2103B134AA2FBA9
:1038600003231B09FB60124AFB6813441B781A46AA
:103870007B68DA65FB68032B08D97B681B681A46EE
:103880000C4B13401A1D7B689A6506E07B681B6829
:103890001A46084B13407A6893657B689B6D1846FF
:1038A0001437BD465DF8047B704700BFABAAAAAAD7
:1038B0008867040800FCFFFF80B485B000AF786023
:1038C0000023FB737B689B6ABB607B689B69002B52
:1038D0001FD1BB68032B56D801A252F823F000BFBA
:1038E000F138000803390008F1380008873900086A
:1038F0007B68DB6A03F08073002B46D00123FB73E7
:1039000043E07B68DB6AB3F1C07F40D10123FB73E6
:103910003DE07B689B69B3F5005F21D1BB68032B59
:1039200037D801A252F823F0393900083F3900088E
:1039300039390008513900080123FB7330E07B68F6
:10394000DB6A03F08073002B25D00123FB7322E098
:103950007B68DB6AB3F1C07F1FD10123FB731CE0DE
:10396000BB68022B03D9BB68032B03D018E00123EB
:10397000FB7315E07B68DB6A03F08073002B0ED0CD
:103980000123FB730BE000BF0AE000BF08E000BFAB
:1039900006E000BF04E000BF02E000BF00E000BF9F
:1039A000FB7B18461437BD465DF8047B704700BFAB
:1039B00080B400AF054B1B68044A43F48073136066
:1039C00000BFBD465DF8047B704700BF007000403B
:1039D00080B582B000AF00237B60234B1B6C224A72
:1039E00043F080531364204B1B6C03F080533B6007
:1039F0003B681E4B1B681D4A43F48033136000F084
:103A000011FA786009E000F00DFA02467B68D31ADB
:103A1000B3F57A7F01D9032322E0144B5B6803F4EA
:103A20008033B3F5803FEED1104B1B680F4A43F44F
:103A30000033136000F0F6F9786009E000F0F2F965
:103A400002467B68D31AB3F57A7F01D9032307E0D6
:103A5000064B5B6803F40033B3F5003FEED100235F
:103A600018460837BD4680BD00380240007000404F
:103A700080B485B000AF78607B6803F00703FB601B
:103A80000B4BDB68BB60BA684FF6FF031340BB60AB
:103A9000FB681A02BB681A43064B1343BB60044A17
:103AA000BB68D36000BF1437BD465DF8047B704728
:103AB00000ED00E00000FA0580B400AF044BDB68C5
:103AC0001B0A03F007031846BD465DF8047B7047E8
:103AD00000ED00E080B483B000AF0346FB7197F9BE
:103AE0000730002B0BDBFB7903F01F02074997F926
:103AF00007305B09012000FA02F241F8232000BFE1
:103B00000C37BD465DF8047B704700BF00E100E064
:103B100080B483B000AF0346FB7197F90730002BE8
:103B200012DBFB7903F01F020A4997F907305B09A2
:103B3000012000FA02F2203341F82320BFF34F8F17
:103B400000BFBFF36F8F00BF00BF0C37BD465DF8ED
:103B5000047B704700E100E080B483B000AF03460F
:103B6000FB7197F90730002B0CDBFB7903F01F0288
:103B7000074997F907305B09012000FA02F2603328
:103B800041F8232000BF0C37BD465DF8047B704729
:103B900000E100E080B483B000AF03463960FB7100
:103BA00097F90730002B0ADB3B68DAB20C4997F92A
:103BB00007301201D2B20B4483F800230AE03B68BD
:103BC000DAB20849FB7903F00F03043B1201D2B2C9
:103BD0000B441A7600BF0C37BD465DF8047B704776
:103BE00000E100E000ED00E080B489B000AFF860D3
:103BF000B9607A60FB6803F00703FB61FB69C3F1FE
:103C00000703042B28BF0423BB61FB690433062B85
:103C100002D9FB69033B00E000237B614FF0FF32D8
:103C2000BB6902FA03F3DA43BB681A407B699A4026
:103C30004FF0FF317B6901FA03F3D9437B680B40F6
:103C4000134318462437BD465DF8047B704780B5A2
:103C500082B000AF78607868FFF70AFF00BF0837CE
:103C6000BD4680BD80B586B000AF0346B9607A60BE
:103C7000FB7300237B61FFF71FFF78617A68B968E7
:103C80007869FFF7B1FF024697F90F3011461846E1
:103C9000FFF780FF00BF1837BD4680BD80B582B0FA
:103CA00000AF0346FB7197F907301846FFF712FF84
:103CB00000BF0837BD4680BD80B582B000AF034667
:103CC000FB7197F907301846FFF722FF00BF08374E
:103CD000BD4680BD80B400AFBFF35F8F00BF074B10
:103CE0005B6A064A23F480335362054B00225A6014
:103CF00000BFBD465DF8047B704700BF00ED00E0EB
:103D000090ED00E080B483B000AF78600B4A7B6830
:103D100043F0010353600A4B5B6A094A43F4803362
:103D20005362BFF34F8F00BFBFF36F8F00BF00BF61
:103D30000C37BD465DF8047B704700BF90ED00E096
:103D400000ED00E080B483B000AF78607B685A7803
:103D50001B4B9A601A4B1B69194A23F0010313612C
:103D6000174A7B685B68D3607B681B7B1A077B689C
:103D7000DB7A1B061A437B689B7ADB041A437B6859
:103D80005B7B9B041A437B689B7B5B041A437B68C9
:103D9000DB7B1B041A437B685B7A1B021A437B683C
:103DA0001B7A5B0013437A6812781146044A0B436E
:103DB000136100BF0C37BD465DF8047B704700BF40
:103DC00090ED00E080B582B000AF0346FB7197F93B
:103DD00007301846FFF7C0FE00BF0837BD4680BD5C
:103DE00080B500AF0320FFF732FF002023F052FA26
:103DF00023F028FA0023184680BD000080B400AFED
:103E0000064B1B781A46064B1B681344044A136082
:103E100000BFBD465DF8047B704700BF0C0000206A
:103E20001C06002080B400AF034B1B681846BD463B
:103E30005DF8047B704700BF1C06002080B584B08D
:103E400000AF7860FFF7EEFFB8607B68FB60FB684F
:103E5000B3F1FF3F05D00A4B1B781A46FB681344A9
:103E6000FB6000BFFFF7DEFF0246BB68D31AFA68AB
:103E70009A42F7D800BF00BF1037BD4680BD00BFD3
:103E80000C00002080B582B000AF78607B68002B0A
:103E900001D101238BE07B6893F84130DBB2002B2A
:103EA00006D17B68002283F84020786821F0EEFE7E
:103EB0007B68242283F841207B681B681A687B6832
:103EC0001B6822F001021A607B685A687B681B68D5
:103ED00022F070621A617B681B689A687B681B68B5
:103EE00022F400429A607B68DB68012B07D17B6873
:103EF0009A687B681B6842F400429A6006E07B681F
:103F00009A687B681B6842F404429A607B68DB68AD
:103F1000022B08D17B681B685A687B681B6842F4D7
:103F200000625A6007E07B681B685A687B681B6800
:103F300022F400625A607B681B6859687B681A68C3
:103F40001D4B0B4353607B681B68DA687B681B68FA
:103F500022F40042DA607B681A697B685B6942EA96
:103F600003017B689B691A027B681B680A43DA605D
:103F70007B68D9697B681A6A7B681B680A431A6088
:103F80007B681B681A687B681B6842F001021A6034
:103F90007B6800225A647B68202283F841207B687A
:103FA00000221A637B68002283F84220002318460F
:103FB0000837BD4680BD00BF0080000280B588B0D4
:103FC00002AFF860084611461A4603467B810B464D
:103FD0003B811346FB80FB6893F84130DBB2202B1A
:103FE00040F0F9803B6A002B02D0BB8C002B05D13E
:103FF000FB684FF400725A640123EDE0FB6893F80C
:104000004030012B01D10223E6E0FB68012283F856
:104010004020FFF707FF78617B6900931923012295
:104020004FF40041F86801F0CEFF0346002B01D0A9
:104030000123D1E0FB68212283F84120FB68402264
:1040400083F84220FB6800225A64FB683A6A5A628D
:10405000FB68BA8C5A85FB6800225A63F8883A8953
:1040600079897B690193BB6A00930346F86801F084
:10407000FFF90346002B05D0FB68002283F840209F
:104080000123A9E0FB685B8D9BB2FF2B0ED9FB6877
:10409000FF221A85FB681B8DDAB279890023009311
:1040A0004FF08073F86802F051F90FE0FB685B8D08
:1040B0009AB2FB681A85FB681B8DDAB279890023F6
:1040C00000934FF00073F86802F040F97A69B96A1A
:1040D000F86801F0D1FF0346002B01D001237BE0FB
:1040E000FB685B6A1A78FB681B689A62FB685B6A0C
:1040F0005A1CFB685A62FB685B8D9BB2013B9AB20B
:10410000FB685A85FB681B8D013B9AB2FB681A85D8
:10411000FB685B8D9BB2002B34D0FB681B8D002BA2
:1041200030D17B690093BB6A00228021F86801F0DE
:104130004AFF0346002B01D001234DE0FB685B8D55
:104140009BB2FF2B0ED9FB68FF221A85FB681B8DE3
:10415000DAB27989002300934FF08073F86802F097
:10416000F5F80FE0FB685B8D9AB2FB681A85FB6877
:104170001B8DDAB27989002300934FF00073F86841
:1041800002F0E4F8FB685B8D9BB2002B9ED17A694C
:10419000B96AF86801F0B7FF0346002B01D001238C
:1041A0001AE0FB681B682022DA61FB681B6859680B
:1041B000FB681A680A4B0B405360FB68202283F8A7
:1041C0004120FB68002283F84220FB68002283F82C
:1041D0004020002300E0022318461837BD4680BD6A
:1041E00000E800FE80B588B002AFF86008461146CE
:1041F0001A4603467B810B463B811346FB80FB68D6
:1042000093F84130DBB2202B40F0FD803B6A002B5D
:1042100002D0BB8C002B05D1FB684FF400725A64AE
:104220000123F1E0FB6893F84030012B01D1022318
:10423000EAE0FB68012283F84020FFF7F3FD786194
:104240007B690093192301224FF40041F86801F0C3
:10425000BAFE0346002B01D00123D5E0FB682222E1
:1042600083F84120FB68402283F84220FB6800224B
:104270005A64FB683A6A5A62FB68BA8C5A85FB68D2
:1042800000225A63F8883A8979897B690193BB6A6D
:1042900000930346F86801F03FF90346002B05D070
:1042A000FB68002283F840200123ADE0FB685B8DB2
:1042B0009BB2FF2B0ED9FB6801221A85FB681B8D70
:1042C000DAB27989524B00934FF08073F86802F0AC
:1042D0003DF80FE0FB685B8D9AB2FB681A85FB68BE
:1042E0001B8DDAB279894A4B00934FF00073F8685E
:1042F00002F02CF87B690093BB6A00220421F86865
:1043000001F061FE0346002B01D001237CE0FB6835
:104310001B685A6AFB685B6AD2B21A70FB685B6AF8
:104320005A1CFB685A62FB681B8D013B9AB2FB6802
:104330001A85FB685B8D9BB2013B9AB2FB685A857C
:10434000FB685B8D9BB2002B34D0FB681B8D002B70
:1043500030D17B690093BB6A00228021F86801F0AC
:1043600032FE0346002B01D001234DE0FB685B8D3C
:104370009BB2FF2B0ED9FB6801221A85FB681B8DAF
:10438000DAB27989002300934FF08073F86801F066
:10439000DDFF0FE0FB685B8D9AB2FB681A85FB6856
:1043A0001B8DDAB27989002300934FF00073F8680F
:1043B00001F0CCFFFB685B8D9BB2002B9AD17A6930
:1043C000B96AF86801F09FFE0346002B01D0012373
:1043D0001AE0FB681B682022DA61FB681B685968D9
:1043E000FB681A680B4B0B405360FB68202283F874
:1043F0004120FB68002283F84220FB68002283F8FA
:104400004020002300E0022318461837BD4680BD37
:104410000024008000E800FE80B586B002AFF8609E
:10442000084611461A4603467B810B463B811346DC
:10443000FB80FB6893F84130DBB2202B66D1BB696F
:10444000002B02D0BB8B002B05D1FB684FF4007210
:104450005A6401235BE0FB681B689B6903F400431B
:10446000B3F5004F01D1022351E0FB6893F84030CF
:10447000012B01D102234AE0FB68012283F840208E
:10448000FB68222283F84120FB68402283F8422007
:10449000FB6800225A64FB68BA695A62FB68BA8BEF
:1044A0005A85FB681C4ADA62FB681C4A5A637A899F
:1044B000FB68DA64FB88012B09D13B89DAB2FB681F
:1044C0001B689A62FB684FF0FF321A650BE03B896C
:1044D0001B0A9BB2DAB2FB681B689A623B89DBB2AB
:1044E0001A46FB681A65FB88DAB279890C4B00938F
:1044F0000023F86801F02AFFFB68002283F84020BF
:104500000121F86801F054FF002300E0022318465F
:104510001037BD4680BD00BF0000FFFF65490008A1
:104520000020008080B58AB002AFF8607A603B60FE
:104530000B467B8100237B610023FB77FB6893F8AC
:104540004130DBB2202B40F0E980FB681B689B699F
:1045500003F40043B3F5004F01D10223DFE0FB6811
:1045600093F84030012B01D10223D8E0FB680122EF
:1045700083F84020FB68242283F84120FB68002256
:104580005A64FB68DB68012B05D17B89C3F3090200
:10459000654B134304E07B89C3F30902634B134368
:1045A000FA6812685360FFF73DFCB861FB681B684E
:1045B0009B6903F02003202B0CBF01230023DBB2F7
:1045C000BB77FB681B689B6903F01003102B0CBFC3
:1045D00001230023DBB27B7734E03B68B3F1FF3F7C
:1045E0001AD0FFF71FFC0246BB69D31A3A689A42F9
:1045F00002D33B68002B0FD1FB68202283F84120B7
:10460000FB685B6C43F02002FB685A64FB68002285
:1046100083F84020012382E0FB681B689B6903F05C
:104620002003202B0CBF01230023DBB2BB77FB68E8
:104630001B689B6903F01003102B0CBF01230023A0
:10464000DBB27B77BB7F002B02D17B7F002BC4D0FA
:10465000FB681B689B6903F01003102B27D0BB6914
:1046600000933B6800222021F86801F0ACFC03466F
:10467000002B0ED0FB685B6C042B07D1FB681B681A
:104680002022DA61FB6800225A6426E00123FB77CE
:1046900023E0FB681B682022DA61FB68202283F894
:1046A0004120FB68002283F84020002337E0FB68AC
:1046B0001B681022DA61BB6900933B68002220214D
:1046C000F86801F080FC0346002B02D00123FB7741
:1046D00003E0FB681B682022DA617B6901337B61A0
:1046E0007B697A689A4204D9FB7F012B01D10023B0
:1046F000FB777B697A689A423FF643AFFB682022DA
:1047000083F84120FB685B6C43F02002FB685A642D
:10471000FB68002283F84020012300E002231846B2
:104720002037BD4680BD00BF0020000200280002E7
:1047300080B586B002AF78600B467B807B6893F8CB
:104740004230FB73FB7B102B02D0FB7B402B3CD118
:104750007B6893F84030012B01D1022336E07B685F
:10476000012283F840207B6893F84130DBB2212B93
:1047700007D10121786801F09FFE7B6811221A633E
:104780000CE07B6893F84130DBB2222B06D102218A
:10479000786801F091FE7B6812221A637B686022C0
:1047A00083F8412079880B4B00934FF0007301226E
:1047B000786801F0CBFD7B68002283F8402020213F
:1047C000786801F0F5FD002300E00123184610375A
:1047D000BD4680BD0040008080B584B000AF7860E9
:1047E0007B681B689B69FB607B681B681B68BB6000
:1047F0007B685B6B002B05D07B685B6BBA68F968E4
:104800007868984700BF1037BD4680BD80B586B038
:1048100000AF78607B681B689B697B617B681B6865
:104820001B683B617B691B0A03F00103002B10D05E
:104830003B69DB0903F00103002B0AD07B685B6C4A
:1048400043F001027B685A647B681B684FF48072F6
:10485000DA617B699B0A03F00103002B10D03B69EE
:10486000DB0903F00103002B0AD07B685B6C43F08B
:1048700008027B685A647B681B684FF48062DA61C7
:104880007B695B0A03F00103002B10D03B69DB0955
:1048900003F00103002B0AD07B685B6C43F002023B
:1048A0007B685A647B681B684FF40072DA617B682E
:1048B0005B6CFB60FB6803F00B03002B03D0F96813
:1048C000786801F027FA00BF1837BD4680BD80B474
:1048D00083B000AF786000BF0C37BD465DF8047B45
:1048E000704780B483B000AF786000BF0C37BD461E
:1048F0005DF8047B704780B483B000AF786000BF80
:104900000C37BD465DF8047B704780B483B000AFC0
:10491000786000BF0C37BD465DF8047B704780B4FB
:1049200083B000AF78600B46FB7013463B8000BF3E
:104930000C37BD465DF8047B704780B483B000AF90
:10494000786000BF0C37BD465DF8047B704780B4CB
:1049500083B000AF786000BF0C37BD465DF8047BC4
:104960007047000080B588B002AFF860B9607A6027
:104970008C4B7B61BB683B61FB6893F84030012B3B
:1049800001D1022339E1FB68012283F840203B6911
:104990001B0903F00103002B13D07B681B0903F0F4
:1049A0000103002B0DD0FB681B681022DA61FB6845
:1049B0005B6C43F00402FB685A64F86801F0C1FACA
:1049C00006E13B699B0803F00103002B23D07B68C1
:1049D0009B0803F00103002B1DD03B6923F0040367
:1049E0003B61FB681B685A6AFB685B6AD2B21A704B
:1049F000FB685B6A5A1CFB685A62FB681B8D013BB3
:104A00009AB2FB681A85FB685B8D9BB2013B9AB238
:104A1000FB685A85DCE03B695B0803F00103002B6F
:104A20002DD07B685B0803F00103002B27D0FB68C7
:104A30001B6DB3F1FF3F18D1FB685B6A1A78FB6806
:104A40001B689A62FB685B6A5A1CFB685A62FB68C7
:104A50001B8D013B9AB2FB681A85FB685B8D9BB28C
:104A6000013B9AB2FB685A85B2E0FB681B68FA68A2
:104A7000126D9A62FB684FF0FF321A65A8E03B693D
:104A8000DB0903F00103002B4BD07B689B0903F08B
:104A90000103002B45D0FB685B8D9BB2002B3AD005
:104AA000FB681B8D002B36D1FB685B8D9BB2FF2B07
:104AB0001ED9FB681B689B691B0CDBB203F001036A
:104AC000DBB2012B03D1FB6801221A8502E0FB68EF
:104AD000FF221A85FB68DB6C99B2FB681B8DDAB28A
:104AE000002300934FF08073F86801F02FFC17E06B
:104AF000FB685B8D9AB2FB681A85FB68DB6C99B228
:104B0000FB681B8DDAB2002300934FF00073F86846
:104B100001F01CFC04E04021F86801F0FBF857E0CC
:104B200056E03B699B0903F00103002B50D07B68E2
:104B30009B0903F00103002B4AD00121F86801F022
:104B4000BBFC0221F86801F033FCFB6893F84130AC
:104B5000DBB2222B01D1144B7B61FB685B8D9BB2D6
:104B6000FF2B23D9FB681B689B691B0CDBB203F08E
:104B70000103DBB2012B03D1FB6801221A8502E09D
:104B8000FB68FF221A85FB68DB6C99B2FB681B8D02
:104B9000DAB27B6900934FF08073F86801F0D6FBBE
:104BA00016E000BF0020008000240080FB685B8DC1
:104BB0009AB2FB681A85FB68DB6C99B2FB681B8DA7
:104BC000DAB27B6900934FF00073F86801F0BEFB26
:104BD0003B695B0903F00103002B09D07B685B098B
:104BE00003F00103002B03D03969F86800F008FED8
:104BF000FB68002283F84020002318461837BD4682
:104C000080BD00BF80B586B000AFF860B9607A6043
:104C1000FB68DB6A7B61BB683B61FB6893F84030F3
:104C2000012B01D10223EDE0FB68012283F8402033
:104C30003B695B0903F00103002B0AD07B685B0929
:104C400003F00103002B04D03969F86800F0A2FEDC
:104C5000D3E03B691B0903F00103002B4DD07B68B7
:104C60001B0903F00103002B47D0FB685B8D9BB24F
:104C7000002B28D1FB6893F84130DBB2282B08D1F8
:104C80007B69B3F1007F04D13969F86800F0ECFF6B
:104C900032E0FB6893F84130DBB2292B0ED17B69FF
:104CA00013F5803F0AD0FB681B681022DA61F868B0
:104CB00001F047F9F86800F044FD1DE0FB681B684F
:104CC0001022DA6196E0FB681B681022DA61FB684B
:104CD0005B6C43F00402FB685A647B69002B04D0D0
:104CE0007B69B3F1807F40F08580FB685B6C19467F
:104CF000F86801F00FF87DE07CE03B699B0803F069
:104D00000103002B30D07B689B0803F00103002BCC
:104D10002AD0FB685B8D9BB2002B18D0FB681B6808
:104D20005A6AFB685B6AD2B21A70FB685B6A5A1CEB
:104D3000FB685A62FB681B8D013B9AB2FB681A85BF
:104D4000FB685B8D9BB2013B9AB2FB685A85FB689E
:104D50005B8D9BB2002B4FD17B6913F5803F4BD00D
:104D6000F86800F0EEFC47E03B69DB0803F0010364
:104D7000002B0AD07B68DB0803F00103002B04D072
:104D80003969F86800F01CFC37E03B695B0803F008
:104D90000103002B31D07B685B0803F00103002B7B
:104DA0002BD0FB685B8D9BB2002B18D0FB685B6A35
:104DB0001A78FB681B689A62FB685B6A5A1CFB687E
:104DC0005A62FB685B8D9BB2013B9AB2FB685A85C5
:104DD000FB681B8D013B9AB2FB681A850DE07B696D
:104DE000B3F1807F02D07B69002B06D1F86800F018
:104DF000A8FC02E000BF00E000BFFB68002283F8CF
:104E00004020002318461837BD4680BD80B588B0C5
:104E100002AFF860B9607A60FB6893F84030012B0C
:104E200001D10223F0E0FB68012283F84020BB6837
:104E30001B0903F00103002B17D07B681B0903F04B
:104E40000103002B11D0FB681B681022DA61FB689C
:104E50005B6C43F00402FB685A642021F86801F09F
:104E6000A7FAF86801F06DF8C9E0BB68DB0903F048
:104E70000103002B00F081807B689B0903F0010394
:104E8000002B7AD0FB681B681A68FB681B6822F04D
:104E900040021A60FB685B8D9BB2002B5CD0FB6804
:104EA0001B685B689BB2C3F309037B82FB685B8D65
:104EB0009BB2FF2B14D9FB681B689B691B0CDBB2F0
:104EC00003F00103DBB2012B03D1FB6801221A8539
:104ED00002E0FB68FF221A854FF080737B6110E0CF
:104EE000FB685B8D9AB2FB681A85FB68DB6A13F579
:104EF000803F03D0FB68DB6A7B6102E04FF0007308
:104F00007B61FB681B8DDAB2798A002300937B6991
:104F1000F86801F01BFAFB685B8D9AB2FB681B8D89
:104F2000D31A9AB2FB685A85FB6893F84130DBB21A
:104F3000222B08D1FB681B681A68FB681B6842F4C7
:104F400000421A605BE0FB681B681A68FB681B681C
:104F500042F480421A6052E0FB681B685B6803F011
:104F60000073B3F1007F03D0F86800F0ADFB46E0BA
:104F70004021F86800F0CEFE41E0BB689B0903F0D9
:104F80000103002B29D07B689B0903F00103002B50
:104F900023D0FB685B8D9BB2002B19D1FB681B688B
:104FA0005B6803F00073B3F1007F27D0FB68DB6A16
:104FB00013F5803F08D1FB681B685A68FB681B68C3
:104FC00042F480425A6019E0F86800F07DFB15E079
:104FD0004021F86800F09EFE10E0BB685B0903F01A
:104FE0000103002B0BD07B685B0903F00103002B4E
:104FF00005D0B968F86800F003FC00E000BFFB686A
:10500000002283F84020002318461837BD4680BD93
:1050100080B588B002AFF860B9607A60944B7B616C
:10502000FB6893F84030012B01D1022339E1FB6882
:10503000012283F84020BB681B0903F00103002B09
:1050400017D07B681B0903F00103002B11D0FB680C
:105050001B681022DA61FB685B6C43F00402FB689A
:105060005A642021F86801F0A3F9F86800F069FF9C
:1050700012E1BB685B0803F00103002B0FD07B68D3
:105080005B0803F00103002B09D0FB681B68FA687A
:10509000126D9A62FB684FF0FF321A65FCE0BB6844
:1050A000DB0903F00103002B6ED07B689B0903F042
:1050B0000103002B68D00121F86801F0FDF91021EF
:1050C000F86801F075F9FB685B8D9BB2002B56D038
:1050D000FB685B8D9BB2FF2B1ED9FB681B689B692D
:1050E0001B0CDBB203F00103DBB2012B03D1FB6825
:1050F00001221A8502E0FB68FF221A85FB68DB6C3F
:1051000099B2FB681B8DDAB2002300934FF08073D5
:10511000F86801F01BF911E0FB685B8D9AB2FB683F
:105120001A85FB68DB6C99B2FB681B8DDAB2002331
:1051300000934FF00073F86801F008F9FB685B8D8D
:105140009AB2FB681B8DD31A9AB2FB685A85FB682A
:1051500093F84130DBB2222B08D1FB681B681A6838
:10516000FB681B6842F400421A6095E0FB681B680C
:105170001A68FB681B6842F480421A608CE0402188
:10518000F86800F0C7FD87E0BB689B0903F00103E6
:10519000002B71D07B689B0903F00103002B6BD0BF
:1051A0000121F86801F088F91021F86801F000F990
:1051B000FB6893F84130DBB2222B01D12D4B7B6190
:1051C000FB685B8D9BB2FF2B1ED9FB681B689B693C
:1051D0001B0CDBB203F00103DBB2012B03D1FB6834
:1051E00001221A8502E0FB68FF221A85FB68DB6C4E
:1051F00099B2FB681B8DDAB27B6900934FF0807324
:10520000F86801F0A3F811E0FB685B8D9AB2FB68C7
:105210001A85FB68DB6C99B2FB681B8DDAB27B697F
:1052200000934FF00073F86801F090F8FB685B8D15
:105230009AB2FB681B8DD31A9AB2FB685A85FB6839
:1052400093F84130DBB2222B08D1FB681B681A6847
:10525000FB681B6842F400421A601DE0FB681B6893
:105260001A68FB681B6842F480421A6014E000BFB1
:105270000020008000240080BB685B0903F001036C
:10528000002B09D07B685B0903F00103002B03D0DE
:10529000B968F86800F0B4FAFB68002283F840208F
:1052A000002318461837BD4680BD00BF80B588B0C2
:1052B00000AFF860B9607A60FB68DB6ABB6100230D
:1052C000FB61FB6893F84030012B01D10223CAE057
:1052D000FB68012283F84020BB685B0903F00103EF
:1052E000002B0AD07B685B0903F00103002B04D07C
:1052F000B968F86800F04EFBB0E0BB681B0903F02A
:105300000103002B00F09A807B681B0903F0010366
:10531000002B00F093807B689B0B03F00103002BB4
:1053200005D17B68DB0B03F00103002B7FD0FB680A
:10533000DB6B002B0DD07B68DB0B03F00103002B34
:1053400007D0FB68DB6B1B685B68002B01D1012376
:10535000FB61FB689B6B002B0DD07B689B0B03F004
:105360000103002B07D0FB689B6B1B685B68002B5D
:1053700001D10123FB61FB69012B28D1FB6893F864
:105380004130DBB2282B08D1BB69B3F1007F04D1D7
:10539000B968F86800F068FC48E0FB6893F84130B1
:1053A000DBB2292B0ED1BB6913F5803F0AD0FB6815
:1053B0001B681022DA61F86800F0C3FDF86800F09D
:1053C000C0F933E0FB681B681022DA6134E0FB6847
:1053D0001B681022DA61FB685B6C43F00402FB6817
:1053E0005A64FB6893F84130FB75BB69002B03D00E
:1053F000BB69B3F1807F1FD1FB7D212B02D0FB7DE8
:10540000292B03D1FB6821221A6308E0FB7D222BA4
:1054100002D0FB7D2A2B02D1FB6822221A63FB6893
:105420005B6C1946F86800F075FC05E004E0FB6869
:105430001B681022DA6111E000BF0FE0BB68DB08D7
:1054400003F00103002B09D07B68DB0803F00103A4
:10545000002B03D0B968F86800F0B2F8FB680022AE
:1054600083F84020002318462037BD4680BD000049
:1054700080B586B002AFF860084611461A4603466A
:105480007B810B463B811346FB80FB88DAB279892E
:10549000204B00934FF08073F86800F057FFFA69D3
:1054A000B969F86800F0E8FD0346002B01D001233C
:1054B0002CE0FB88012B05D13B89DAB2FB681B6825
:1054C0009A6215E03B891B0A9BB2DAB2FB681B6843
:1054D0009A62FA69B969F86800F0CEFD0346002BBC
:1054E00001D0012312E03B89DAB2FB681B689A62A3
:1054F000FB690093BB6900228021F86800F063FD1E
:105500000346002B01D0012300E00023184610378A
:10551000BD4680BD0020008080B586B002AFF86037
:10552000084611461A4603467B810B463B811346CB
:10553000FB80FB88DAB27989204B00930023F8685E
:1055400000F004FFFA69B969F86800F095FD0346B8
:10555000002B01D001232CE0FB88012B05D13B89D6
:10556000DAB2FB681B689A6215E03B891B0A9BB2A2
:10557000DAB2FB681B689A62FA69B969F86800F0E8
:105580007BFD0346002B01D0012312E03B89DAB2F8
:10559000FB681B689A62FB690093BB69002240218B
:1055A000F86800F010FD0346002B01D0012300E055
:1055B000002318461037BD4680BD00BF0020008084
:1055C00080B584B000AF786039607B6893F8413073
:1055D000DBB203F02803282B6AD17B681B689B6928
:1055E0001B0CDBB203F00103FB737B681B689B6938
:1055F0001B0C9BB203F0FE03BB817B681B689B689E
:105600009BB2C3F309037B817B681B68DB689BB299
:1056100003F0FE033B817B68DB68022B38D17B897A
:10562000DB099AB2BB8953409BB203F00603002BFF
:105630001CD17B89BB817B689B6C5A1C7B689A64FC
:105640007B689B6C022B3BD17B6800229A647B6851
:105650001B680822DA617B68002283F84020BA893F
:10566000FB7B19467868FFF75AF929E03B89BB8133
:105670004FF40041786800F01FFF7B68002283F838
:105680004020BA89FB7B19467868FFF748F917E094
:105690004FF40041786800F00FFF7B68002283F828
:1056A0004020BA89FB7B19467868FFF738F907E094
:1056B0007B681B680822DA617B68002283F840203F
:1056C00000BF1037BD4680BD80B582B000AF7860A6
:1056D0007B68002283F842207B6893F84130DBB27C
:1056E000212B15D17B68202283F841207B68112271
:1056F0001A637B6800225A630121786800F0DCFE9F
:105700007B68002283F840207868FFF7E0F814E017
:105710007B68202283F841207B6812221A637B6811
:1057200000225A630221786800F0C6FE7B680022DE
:1057300083F840207868FFF7D4F800BF0837BD46EB
:1057400080BD80B584B000AF78607B681B681B6843
:10575000FB607B68002283F84220FB689B0B03F010
:105760000103002B08D07B681B681A687B681B68E4
:1057700022F480421A600DE0FB68DB0B03F00103AA
:10578000002B07D07B681B681A687B681B6822F4B3
:1057900000421A607B6893F84130DBB2292B12D1AA
:1057A0007B68282283F841207B6821221A6301212B
:1057B000786800F081FE7B68002283F840207868DA
:1057C000FFF799F817E07B6893F84130DBB22A2B9A
:1057D00011D17B68282283F841207B6822221A633A
:1057E0000221786800F068FE7B68002283F8402080
:1057F0007868FFF78AF800BF1037BD4680BD00000B
:1058000080B586B000AF786039603B687B617B68AB
:105810001B682022DA617B6893F84130DBB2212BD0
:1058200007D10121786800F047FE7B6811221A63D6
:105830000CE07B6893F84130DBB2222B06D10221C9
:10584000786800F039FE7B6812221A637B681B6857
:1058500059687B681A684D4B0B4053607B68002287
:105860005A637B684A4ADA627B691B0903F00103C9
:10587000002B09D07B681B681022DA617B685B6CA7
:1058800043F004027B685A647B6893F84130DBB2D2
:10589000602B0BD17B699B0803F00103002B05D023
:1058A0007B681B685B6ADBB2FB60FB68786800F0B2
:1058B00048FB7B685B6C3B617B6893F84130DBB2F3
:1058C000602B02D03B69002B06D07B685B6C1946CD
:1058D000786800F01FFA54E07B6893F84130DBB23F
:1058E000212B24D17B68202283F841207B68002271
:1058F0001A637B6893F84230DBB2402B0BD17B6894
:10590000002283F842207B68002283F840207868D8
:10591000FFF71DF835E07B68002283F842207B68A2
:10592000002283F840207868FEF7D1FF29E07B68E9
:1059300093F84130DBB2222B23D17B68202283F8FD
:1059400041207B6800221A637B6893F84230DBB207
:10595000402B0BD17B68002283F842207B68002219
:1059600083F8402078681FF0BDF90AE07B680022C8
:1059700083F842207B68002283F840207868FEF795
:10598000B0FF00BF1837BD4680BD00BF00E800FE75
:105990000000FFFF80B586B000AF786039607B689B
:1059A0001B681B683B613B687B617B68DB6AFB6053
:1059B0007B6893F84130FB727B681B682022DA61B8
:1059C000FB7A212B02D0FB7A292B08D148F2010166
:1059D000786800F071FD7B6821221A6319E0FB7A78
:1059E000222B02D0FB7A2A2B08D148F202017868D8
:1059F00000F062FD7B6822221A630AE0FB7A282B02
:105A000007D148F20301786800F056FD7B68002258
:105A10001A637B681B685A687B681B6842F4004203
:105A20005A607B681B6859687B681A688C4B0B400E
:105A30005360786800F085FA3B699B0B03F0010323
:105A4000002B13D07B681B681A687B681B6822F4E4
:105A500080421A607B689B6B002B20D07B689B6B1D
:105A60001B685B689AB27B685A8518E03B69DB0B60
:105A700003F00103002B12D07B681B681A687B6857
:105A80001B6822F400421A607B68DB6B002B06D097
:105A90007B68DB6B1B685B689AB27B685A857B69A5
:105AA0009B0803F00103002B20D07B6923F0040343
:105AB0007B617B681B685A6A7B685B6AD2B21A702A
:105AC0007B685B6A5A1C7B685A627B681B8D002B63
:105AD0000CD07B681B8D013B9AB27B681A857B6872
