:020000040800F2
:1000000000000620D5670108496501084B65010815
:100010004D6501084F6501085165010800000000A9
:1000200000000000000000000000000071A70008B0
:10003000536501080000000011A8000875A8000819
:10004000256801082568010825680108056601087A
:10005000256801082568010841660108256801082E
:100060002568010825680108256801082568010838
:100070002568010825680108256801082568010828
:100080002568010825680108256801082568010818
:100090002568010825680108256801082568010808
:1000A00025680108256801082568010825680108F8
:1000B00025680108256801082568010825680108E8
:1000C00025680108256801082568010825680108D8
:1000D00025680108256801082568010825680108C8
:1000E0004766010825680108256801082568010898
:1000F00025680108256801082568010825680108A8
:100100002568010825680108256801082568010897
:10011000256801082568010855650108256801085A
:1001200091650108B1650108256801082568010885
:10013000BD650108256801082568010825680108D2
:100140002568010825680108256801082568010857
:10015000C1650108ED650108F96501082568010818
:100160002568010825680108256801082568010837
:100170002568010861650108256801080000000084
:100180002568010825680108256801082568010817
:100190002568010825680108256801082568010807
:1001A0006D65010825680108796501082568010861
:1001B00025680108256801081166010829660108FB
:1001C00035660108256801081D66010825680108D3
:1001D000256801082568010825680108E16501080E
:1001E00025680108256801082568010825680108B7
:0801F0002568010825680108DB
:1002000010B5054C237833B9044B13B10448AFF350
:1002100000800123237010BD0006002000000000B4
:100220002C9C020808B5034B1BB103490348AFF3EC
:10023000008008BD00000000040600202C9C02087D
:100240004B1C012B98BF70472DE9F003911C9B08B4
:10025000B1F80480B1F802900A8831F802CC8044E9
:10026000814402448444D9F80070D8F800601568CD
:10027000DCF80040C9F80060C8F80070CCF8005005
:100280001460D9F80470D8F804605568DCF80440AC
:10029000C9F80460C8F80470CCF804505460083100
:1002A000013BD5D1BDE8F00370474B1C012B98BF33
:1002B00070472DE9F003911C9B08B1F80480B1F858
:1002C00002900A8831F802CC00EB580800EB59097B
:1002D00000EB520200EB5C0CD9F80070D8F800601B
:1002E0001568DCF80040C9F80060C8F80070CCF868
:1002F000005014600831013BDFD1BDE8F0037047C6
:1003000081F0004102E000BF83F0004330B54FEAC6
:1003100041044FEA430594EA050F08BF90EA020F33
:100320001FBF54EA000C55EA020C7FEA645C7FEAC6
:10033000655C00F0E2804FEA5454D4EB5555B8BFE9
:100340006D420CDD2C4480EA020281EA030382EA5A
:10035000000083EA010180EA020281EA0303362DEC
:1003600088BF30BD11F0004F4FEA01314FF4801CBF
:100370004CEA113102D0404261EB410113F0004FD1
:100380004FEA03334CEA133302D0524263EB430388
:1003900094EA050F00F0A780A4F10104D5F1200E26
:1003A0000DDB02FA0EFC22FA05F2801841F1000181
:1003B00003FA0EF2801843FA05F359410EE0A5F155
:1003C00020050EF1200E012A03FA0EFC28BF4CF086
:1003D000020C43FA05F3C01851EBE37101F000453C
:1003E00007D54FF0000EDCF1000C7EEB00006EEB49
:1003F0000101B1F5801F1BD3B1F5001F0CD34908D3
:100400005FEA30004FEA3C0C04F101044FEA445229
:1004100012F5800F80F09A80BCF1004F08BF5FEAB0
:10042000500C50F1000041EB045141EA050130BD90
:100430005FEA4C0C404141EB0101013C28BFB1F5A2
:10044000801FE9D291F0000F04BF01460020B1FAED
:1004500081F308BF2033A3F10B03B3F120020CDAC0
:100460000C3208DD02F1140CC2F10C0201FA0CF09E
:1004700021FA02F10CE002F11402D8BFC2F1200C03
:1004800001FA02F120FA0CFCDCBF41EA0C019040B9
:10049000E41AA2BF01EB0451294330BD6FEA040402
:1004A0001F3C1CDA0C340EDC04F11404C4F12002ED
:1004B00020FA04F001FA02F340EA030021FA04F3FF
:1004C00045EA030130BDC4F10C04C4F1200220FA56
:1004D00002F001FA04F340EA0300294630BD21FA94
:1004E00004F0294630BD94F0000F83F4801306BF5A
:1004F00081F480110134013D4EE77FEA645C18BF4E
:100500007FEA655C29D094EA050F08BF90EA020FE4
:1005100005D054EA000C04BF1946104630BD91EADC
:10052000030F1EBF0021002030BD5FEA545C05D1DF
:100530004000494128BF41F0004130BD14F580041E
:100540003CBF01F5801130BD01F0004545F0FE4192
:1005500041F470014FF0000030BD7FEA645C1ABFC7
:10056000194610467FEA655C1CBF0B46024650EAFE
:10057000013406BF52EA033591EA030F41F400212A
:1005800030BD00BF90F0000F04BF0021704730B5B0
:100590004FF4806404F132044FF000054FF0000185
:1005A00050E700BF90F0000F04BF0021704730B546
:1005B0004FF4806404F1320410F0004548BF40421B
:1005C0004FF000013EE700BF42004FEAE2014FEA70
:1005D00031014FEA02701FBF12F07F4393F07F4F4B
:1005E00081F06051704732F07F4208BF704793F04E
:1005F0007F4F04BF41F40021704730B54FF4607461
:1006000001F0004521F000411CE700BF50EA010263
:1006100008BF704730B54FF000050AE050EA01020C
:1006200008BF704730B511F0004502D5404261EB7C
:1006300041014FF4806404F132045FEA915C3FF4BD
:10064000D8AE4FF003025FEADC0C18BF03325FEA5A
:10065000DC0C18BF033202EBDC02C2F1200300FA0B
:1006600003FC20FA02F001FA03FE40EA0E0021FA30
:1006700002F11444BDE600BF80F0004002E000BF7C
:1006800081F0004142001FBF5FEA410392EA030F7D
:100690007FEA226C7FEA236C6AD04FEA1262D2EBC7
:1006A0001363C1BFD218414048404140B8BF5B42CC
:1006B000192B88BF704710F0004F40F4000020F065
:1006C0007F4018BF404211F0004F41F4000121F07B
:1006D0007F4118BF494292EA030F3FD0A2F10102C5
:1006E00041FA03FC10EB0C00C3F1200301FA03F103
:1006F00000F0004302D5494260EB4000B0F5000F26
:1007000013D3B0F1807F06D340084FEA310102F1E4
:100710000102FE2A51D2B1F1004F40EBC25008BF96
:1007200020F0010040EA03007047490040EB000060
:10073000013A28BFB0F5000FEDD2B0FA80FCACF161
:10074000080CB2EB0C0200FA0CF0AABF00EBC2508E
:1007500052421843BCBFD0401843704792F0000F7C
:1007600081F4000106BF80F400000132013BB5E7CF
:100770004FEA41037FEA226C18BF7FEA236C21D045
:1007800092EA030F04D092F0000F08BF08467047AA
:1007900090EA010F1CBF0020704712F07F4F04D178
:1007A000400028BF40F00040704712F100723CBF8B
:1007B00000F50000704700F0004343F0FE4040F4B5
:1007C000000070477FEA226216BF08467FEA236373
:1007D0000146420206BF5FEA412390EA010F40F45E
:1007E000800070474FF0000304E000BF10F00043AA
:1007F00048BF40425FEA000C08BF704743F0964391
:1008000001464FF000001CE050EA010208BF7047AB
:100810004FF000030AE000BF50EA010208BF704732
:1008200011F0004302D5404261EB41015FEA010C47
:1008300002BF84460146002043F0B64308BFA3F13F
:100840008053A3F50003BCFA8CF2083AA3EBC25321
:1008500010DB01FA02FC634400FA02FCC2F1200240
:10086000BCF1004F20FA02F243EB020008BF20F077
:100870000100704702F1200201FA02FCC2F12002DD
:1008800050EA4C0021FA02F243EB020008BF20EAD2
:10089000DC7070477BB972B90029BEBF00204FF0F1
:1008A000004106E008BF00281CBF6FF000414FF078
:1008B000FF3000F0F5B9ADF1080C6DE904CE002968
:1008C00009DB002B1ADB00F06FF8DDF804E0DDE94E
:1008D000022304B07047404261EB4101002B1BDB57
:1008E00000F062F8DDF804E0DDE9022304B04042E4
:1008F00061EB4101524263EB43037047524263EBA9
:10090000430300F051F8DDF804E0DDE9022304B010
:10091000404261EB41017047524263EB430300F0F8
:1009200043F8DDF804E0DDE9022304B0524263EB52
:100930004303704753B94AB9002908BF00281CBFB8
:100940004FF0FF314FF0FF3000F0AAB9ADF1080CC5
:100950006DE904CE00F028F8DDF804E0DDE90223BB
:1009600004B07047000000009FED0B6B41EC170BCB
:100970009FED0B5B27EE066BBCEEC66BB8EE464BED
:10098000A4EE457BFCEEC77B16EE101A17EE900A1C
:10099000704700BFAFF30080000000000000F03D92
:1009A000000000000000F0412DE9F047089D0F46CF
:1009B00004468C46002B48D18A42164661D9B2FAC9
:1009C00082F34BB1C3F1200201FA03FC20FA02F2D8
:1009D0009E4042EA0C0C9C404FEA164EB7B2BCFB5C
:1009E000FEF1220C0EFB11CC42EA0C4201FB07F097
:1009F000904209D9B21801F1FF3C80F0EE8090429C
:100A000040F2EB8002393244121AA4B2B2FBFEF07B
:100A10000EFB102244EA024400FB07F7A74209D963
:100A2000341900F1FF3280F0DA80A74240F2D7801B
:100A30003444023840EA0140E41B00211DB1DC408F
:100A40000023C5E90043BDE8F0878B4206D90DB10C
:100A5000C5E9000100210846BDE8F087B3FA83F13B
:100A6000002948D1BB4202D3824200F20781841A96
:100A700067EB030201209446002DE4D0C5E9004C49
:100A8000E1E7002A00F09280B2FA82F3002B40F0F6
:100A9000A8808A1A4FEA164E1FFA86FC0121200C04
:100AA000B2FBFEF70EFB172240EA02420CFB07F0F6
:100AB000904207D9B21807F1FF3802D2904200F2F3
:100AC000E2804746121AA4B2B2FBFEF00EFB1022DF
:100AD00044EA02440CFB00FCA44507D9341900F198
:100AE000FF3202D2A44500F2CB801046A4EB0C04E6
:100AF00040EA0740A2E7C1F120068B4022FA06FC3B
:100B00004CEA030C07FA01F420FA06F3F7404FEA27
:100B10001C49234300FA01F81FFA8CFEB7FBF9F0D9
:100B20001C0C09FB107744EA074400FB0EF7A742B0
:100B300002FA01F20AD91CEB040400F1FF3A80F03A
:100B40009B80A74240F2988002386444E41B9FB225
:100B5000B4FBF9F309FB134447EA044403FB0EFE1C
:100B6000A64509D91CEB040403F1FF3780F082800D
:100B7000A6457FD9023B644443EA0040A4EB0E043F
:100B8000A0FB02E7BC427346B94663D360D05DB1B7
:100B9000B8EB030264EB090404FA06F622FA01F347
:100BA0001E43CC40C5E9006400214CE762084808B8
:100BB00042EAC1710B0C43EA00438AB242EA0342A3
:100BC000B3FBF6F1E407B4463746B6461F23B0FB45
:100BD000F6F0D21B41EA004161E7614614E7104696
:100BE00028E7C3F1200120FA01F29E4027FA01F123
:100BF0009F403A434FEA164E1FFA86FCB1FBFEF7C0
:100C00000EFB1710110C41EA004107FB0CF8884558
:100C100004FA03F43AD9711807F1FF3001D288457C
:100C20001FD8A1EB0801B1FBFEF808FB0CF70EFB87
:100C3000181192B242EA0142BA422FD2B21808F118
:100C4000FF31C6D2BA42C4D2A8F102013244C0E791
:100C5000F0459CD2BEEB020367EB0C070138B946A6
:100C600095E7A6EB08084144B81EB1FBFEF808FB67
:100C70000CF7DCE73B467FE7504667E70846FBE6B4
:100C80003444023832E7023F32441BE7A1EB08014B
:100C90003846B1FBFEF808FB0CF7C8E7414698E779
:100CA000704700BF10F8012B11F8013B012A28BF43
:100CB0009A42F7D0D01A7047034613F8012B002A46
:100CC000FBD1181A01387047000000000000000036
:100CD00001F0FF01102A2BDB10F0070F08D010F8ED
:100CE000013B013A8B422DD010F0070F42B3F6D1F1
:100CF000F0B441EA012141EA014122F007047FF00A
:100D000000070023F0E80256083C85EA010586EA60
:100D1000010685FA47F5A3FA87F586FA47F6A5FA9C
:100D200087F68EB9EED1F0BC01F0FF0102F00702A8
:100D300032B110F8013B013A83EA010313B1F8D153
:100D40000020704701387047002D06BF3546033834
:100D5000073815F0010F07D1013015F4807F02BF6D
:100D6000013015F4C03F0130F0BC0138704700BFBE
:100D7000034AD2F8883043F47003C2F888307047D1
:100D800000ED00E090F83D30012B33D1022380F8D4
:100D90003D300368DA6842F00102DA60164A934295
:100DA0001AD0B3F1804F17D0A2F57C42934213D0F2
:100DB00002F5806293420FD002F5806293420BD01D
:100DC00002F57842934207D002F57052934203D065
:100DD000A2F59432934207D19968084A0A40062A3C
:100DE00006D0B2F5803F03D01A6842F001021A60C3
:100DF00000207047012070470000014007000100FB
:100E00007047704770477047036870B5DD680446E7
:100E10001E69B2070DD5A9070BD56FF002021A6142
:100E2000012202779B699A0775D0FFF7EAFF00233A
:100E30002377730710D568070ED523686FF0040277
:100E400020461A61022222779B6913F4407F68D002
:100E5000FFF7D7FF0023237731070FD52A070DD5DA
:100E600023686FF0080220461A6104222277DB69AA
:100E70009B075CD0FFF7C5FF00232377F10610D551
:100E8000EA060ED523686FF0100220461A61082288
:100E90002277DB6913F4407F4FD0FFF7B2FF0023C6
:100EA0002377F30708D5E80706D523686FF001021A
:100EB00020461A610BF0B4FF16F4025F08D0290631
:100EC00006D523686FF4025220461A6100F0C1F87B
:100ED000F20508D52B0606D523686FF480722046EC
:100EE0001A6100F0B7F8700608D5690606D52368C0
:100EF0006FF0400220461A61FFF785FFB20622D547
:100F0000AB0620D523686FF0200220461A61BDE8A9
:100F1000704000F09DB8FFF773FF2046FFF772FFA7
:100F200085E7FFF76DFF2046FFF76CFF92E7FFF7BD
:100F300067FF2046FFF766FF9EE7FFF761FF204649
:100F4000FFF760FFABE770BD274A0368904212D0FD
:100F5000B0F1804F0FD0A2F57C4290420BD002F549
:100F60008062904207D002F58062904203D002F581
:100F70007842904208D123F070034A68134323F467
:100F80004073CA68134316E0184A9042F7D002F53E
:100F900080629042F3D002F580629042EFD0A2F5D9
:100FA00098329042EBD002F580629042E7D002F591
:100FB00080629042E3D04A6923F0800313438A6839
:100FC000C2620A688262084A904203D002F58062D7
:100FD000904201D10A690263026842F00402026091
:100FE000012242610360704700000140004001405F
:100FF00010B5044650B390F83D3003F0FF021BB922
:1010000080F83C2015F078F902232068211D84F82F
:101010003D30FFF799FF0123002084F8483084F821
:101020003E3084F83F3084F8403084F8413084F812
:10103000423084F8433084F8443084F8453084F8F2
:10104000463084F8473084F83D3010BD0120FCE77D
:1010500070477047704700002DE9F341044618B906
:10106000012002B0BDE8F0810368DE0710D42368D8
:101070009D075ED42368190700F1A38023685A07EF
:1010800000F1C480A269002A40F02E810020E8E728
:10109000934B9A6802F00C02042A07D09A6802F077
:1010A0000C02082A0AD15B68590207D58C4B1B68D1
:1010B0009A03DCD56368002BD9D1D1E76368884DEA
:1010C000B3F5803F11D12B6843F480332B6001F0DE
:1010D0006BFB834E054633689B03C8D401F064FB69
:1010E000401B6428F7D90320BBE79BB92B6823F486
:1010F00080332B602B6823F480232B6001F054FB9A
:1011000006462B689F03B2D501F04EFB801B642876
:10111000F7D9E8E7B3F5A02F2B6803D143F4802378
:101120002B60D0E723F480332B602B6823F48023DB
:10113000CCE76B4B9A6812F00C0F07D09A6802F05C
:101140000C02082A11D15B685D020ED4644A136850
:10115000990702D5E368012B82D11368216923F036
:10116000F80343EAC103136084E7E3685C4DBBB155
:101170002B6843F001032B6001F016FB06462B6839
:101180009B0707D52B68226923F0F80343EAC203C3
:101190002B606FE701F008FB801B0228EFD9A2E764
:1011A0002B6823F001032B6001F0FEFA06462B6842
:1011B0009F077FF55FAF01F0F7FA801B0228F6D991
:1011C00091E76369464D83B16B6F43F001036B6731
:1011D00001F0EAFA06466B6F9B073FF54FAF01F04F
:1011E000E3FA801B0228F6D97DE76B6F23F0010339
:1011F0006B6701F0D9FA06466B6F9F077FF53EAF2C
:1012000001F0D2FA801B0228F6D96CE7344B1A6C35
:10121000D50027D41A6C012742F080521A641B6C47
:1012200003F080530193019B2E4D2B68D8051BD5ED
:10123000A3682B4D012B27D12B6F43F001032B67A4
:1012400041F2883801F0B0FA254E0546336F9A070F
:101250003FD5002F3FF416AF214A136C23F0805383
:1012600013640FE70027DFE72B6843F480732B60DC
:1012700001F09AFA06462B68D905D9D401F094FA00
:10128000801B6428F7D92EE7ABB92B6F41F2883861
:1012900023F001032B672B6F23F004032B6701F06E
:1012A00083FA06462B6F9B07D3D501F07DFA801B8E
:1012B0004045F7D917E7052B2B6F03D143F0040303
:1012C0002B67B9E723F001032B672B6F23F004038F
:1012D000B5E701F069FA401B4045B7D903E700BF05
:1012E00000380240007000403C4DAB6803F00C0336
:1012F000082B42D02B68022A23F080732B602FD159
:1013000001F052FA06462B68990123D4D4E907323A
:101310001343626A43EA8213E26A43EA0263226B7E
:1013200043EA0273A26A5208013A43EA02436B603D
:101330002B6843F080732B6001F036FA274D04468A
:101340002B689A013FF5A2AE01F02EFA001B02288D
:10135000F6D9C8E601F028FA801B0228D3D9C2E6E4
:1013600001F022FA04462B689B017FF58FAE01F055
:101370001BFA001B0228F6D9B5E6012A6B683FF478
:101380006FAE03F48002E1698A427FF469AE03F034
:101390003F02216A8A427FF463AE47F6C072616AF7
:1013A0001A40B2EB811F7FF45BAEA26A03F44031B6
:1013B0005208013AB1EB024F7FF452AE03F0706273
:1013C000E16AB2EB016F7FF44BAE226B03F0E043B6
:1013D000B3EB027F14BF0120002042E60038024038
:1013E00070B5214C88B00E461546236BE8B943F022
:1013F00001034FF4807C03A92363236B079003F060
:1014000001030193019B0223CDE903C30323CDE92B
:101410000503164800F00EFDA36823F0EC6343EAD1
:1014200006012943A16008B070BD43F004034FF4E6
:10143000007203210E482363236B03F0040302931D
:10144000029B0223CDE903230023CDE9053103A943
:10145000079300F0EFFCA36823F0784343EA06010A
:1014600041EAC501DEE700BF00380240000002404B
:1014700000080240134908B58B6803F00C03042BE5
:101480001BD0082B1BD14A684B68496802F03F0209
:1014900013F48003C1F388111ABF0B4800230B48D3
:1014A000A1FB0001FFF746FA064B5B68C3F301435B
:1014B00001335B00B0FBF3F008BD0348FCE70348D1
:1014C000FAE700BF0038024040787D010024F400B4
:1014D0002DE9F0410D46044610B90120BDE8F08128
:1014E000454A136803F00F038B4228D321688F0706
:1014F00030D4C80743D4404A136803F00F03AB420B
:1015000066D8226851076FD4130707D53B4A216973
:10151000936823F4604343EAC1039360FFF7AAFF93
:10152000364B374A9B68C3F30313D35CD840354B23
:101530001860354B186815F0A9F80020CEE713683D
:1015400023F00F030B431360136803F00F038B4268
:10155000C3D1CBE711F0040F284B03D09A6842F4B3
:10156000E0529A600E0703D59A6842F460429A608E
:101570009A68A06822F0F00202439A60B9E76168B5
:101580001E4B01291A681BD112F4003FA5D09A689E
:1015900041F28838194F22F003020A439A6001F0A1
:1015A00003F90646BB68626803F00C03B3EB820FD5
:1015B000A1D001F0F9F8801B4045F3D903208DE755
:1015C000022902D112F0007FE0E712F0020FDDE7FE
:1015D000136823F00F032B431360136803F00F030A
:1015E000AB427FF47AAF8CE70449E0688B6823F460
:1015F000E05303438B6087E7003C02400038024021
:101600008C9D0208040000200C000020014B18688B
:10161000704700BF04000020044B054A9B68C3F3D9
:101620008223D35C034A1068D840704700380240D8
:10163000849D0208040000200F2303600B4B9A686E
:1016400002F0030242609A6802F0F00282609A6837
:1016500002F4E052C2609B68DB0803F4E0530361CC
:10166000034B1B6803F00F030B6070470038024008
:10167000003C02402DE9F7430268044612F00103E2
:101680000BD0AF498B6823F400038B60636B8868D1
:101690001843B3FA83F35B09886012F4002612D072
:1016A000A748E66BD0F88C10B6F5801F21F44011E6
:1016B00008BF012341EA060116BFB6FA86F60026E6
:1016C0007609C0F88C10D00211D59D4D206CD5F84C
:1016D0008C10B0F5800F21F4400141EA0001C5F8FB
:1016E0008C1000F0A981002808BF46F00106C2F363
:1016F0000067910647EA030731D5914B914D1A6C6B
:1017000042F080521A641B6C03F080530193019BDA
:101710002B6843F480732B6001F046F880462B68F9
:10172000DA0540F18B81864D2B6F13F4407340F046
:101730009081236B03F44072B2F5407F804A40F001
:10174000AE81916823F0704021F4F81120F44070CC
:1017500001439160C3F30B03116F0B4313672568BB
:10176000E9060CD5764BD3F88C2022F08072C3F8B2
:101770008C20D3F88C20A16B0A43C3F88C206A0418
:1017800008D56F4A616ED2F8903023F440330B4392
:10179000C2F890302B0408D5694AA16ED2F8903077
:1017A00023F440230B43C2F89030E80308D5644A81
:1017B000E16ED2F8903023F440130B43C2F890301E
:1017C000A90308D55E4A216FD2F8903023F4400374
:1017D0000B43C2F890306A0608D5594A616CD2F8BA
:1017E000903023F003030B43C2F890302B0608D54A
:1017F000534AA16CD2F8903023F00C030B43C2F88B
:101800009030E80508D54E4AE16CD2F8903023F0CC
:1018100030030B43C2F89030A90508D5484A216D22
:10182000D2F8903023F0C0030B43C2F890306A0521
:1018300008D5434A616DD2F8903023F440730B43CE
:10184000C2F890302B0508D53D4AA16DD2F89030F2
:1018500023F440630B43C2F89030E80408D5384ABB
:10186000E16DD2F8903023F440530B43C2F890302E
:10187000A90408D5324A216ED2F8903023F44043AF
:101880000B43C2F890306A0208D52D4AA16FD2F8F6
:10189000903023F080630B43C2F89030AB020DD53B
:1018A0002749E26FD1F89030B2F1006F08BF46F0DF
:1018B000010623F000631343C1F89030680308D594
:1018C0001F4A616FD2F8903023F040730B43C2F887
:1018D0009030290209D51A4AD4F88010D2F89030F5
:1018E00023F080530B43C2F890306A0109D5144AA3
:1018F000D4F88410D2F8903023F000530B43C2F890
:1019000090302B0109D50E4AD4F88810D2F88C30CB
:1019100023F000730B43C2F88C30E80009D5084A65
:10192000D4F88C10D2F88C3023F080630B43C2F8CB
:101930008C30002F40F0B780A90100F1B48003E0A3
:101940000038024000700040C5F3C0053543012D4A
:1019500070D19F4D2B6823F080532B6000F024FF43
:1019600006462B689F0000F1248121680E0301D5F3
:10197000E36B1BB1CD021DD5236CDBB9944AD2F8C1
:101980008830D2F8880003F4403300F0E04003438D
:10199000606943EA8013A06943EA0063C2F88830B3
:1019A000D2F88C30A06A23F4F853013843EA0023BC
:1019B000C2F88C30880215D5E36FB3F1006F11D1F6
:1019C000834AD2F88830D2F8880003F0706300F0C0
:1019D000E0400343606943EA8013206A43EA00431E
:1019E000C2F888300A0719D57949D1F88820D1F88A
:1019F000883002F0706203F440331343626943EAB3
:101A00008213E26943EA0273C1F88830D1F88C305E
:101A1000E26A23F440331343C1F88C306C4C2368E2
:101A200043F08053236000F0BFFE054623689B000F
:101A300040F1C680002009E0012358E600F0B4FE22
:101A4000A0EB080064287FF66AAE032003B0BDE86F
:101A5000F083226B02F4407293423FF46AAE2B6F24
:101A60002A6F23F4407342F480322A672A6F22F4EB
:101A700080322A672B672B6FDB077FF55AAE00F0A9
:101A800093FE41F2883980462B6F98073FF551AE9F
:101A900000F08AFEA0EB08004845F5D9D5E791682B
:101AA00021F4F81155E64A4F3B6823F080633B6010
:101AB00000F07AFE80463B681A0173D42268D3078F
:101AC00012D5636B83B9D7F88430D7F8841003F448
:101AD000403301F070610B43616843EA8113A168F0
:101AE00043EA0173C7F88430170303D5E36BB3F5FA
:101AF000801F05D0D0021ED5236CB3F5800F1AD1FC
:101B00003349D1F88430D1F8840003F4403300F035
:101B1000E0400343606843EA8013E06843EA0063FF
:101B2000C1F88430D1F88C00636A20F01F00013BBB
:101B30000343C1F88C30D10111D52549D1F8843047
:101B4000D1F8840003F0706300F0E0400343606864
:101B500043EA8013206943EA0043C1F884309201CC
:101B60000DD5236962681B0443EA8213E26843EAE5
:101B70000263A26843EA0273154AC2F88430144F24
:101B80003B6843F080633B6000F00EFE80463B689C
:101B90001B013FF5D9AE00F007FEA0EB080064285A
:101BA000F5D952E700F000FEA0EB0800642882D9C6
:101BB0004BE700F0F9FD801B64287FF6D2AE44E7C6
:101BC00000F0F2FD401B64287FF630AF3DE700BF18
:101BD000003802405C4B03605C4BD3F88420C2F3B6
:101BE00088124260D3F88420C2F301420261D3F824
:101BF0008420C2F30362C260D3F88420C2F302726D
:101C00008260D3F88820C2F388124261D3F888201A
:101C1000C2F301420262D3F88820C2F303628261F8
:101C2000D3F88820C2F30272C261D3F88C2002F08C
:101C30001F024262D3F88C20C2F304228262D3F8DE
:101C40008C20C2F30142C262D3F88C2002F440120D
:101C5000C263D3F88C2002F4400202649A6802F452
:101C600000024263D3F8902002F440324266D3F877
:101C7000902002F440228266D3F8902002F44012B1
:101C8000C266D3F8902002F440020267D3F8902095
:101C900002F003024264D3F8902002F00C02826446
:101CA000D3F8902002F03002C264D3F8902002F002
:101CB000C0020265D3F8902002F440724265D3F866
:101CC000902002F440628265D3F8902002F44052E2
:101CD000C265D3F8902002F440420266D3F8902007
:101CE00002F040724267D3F8902002F0806282676F
:101CF000D3F8902002F00062C267D3F8902002F07F
:101D00008052C0F88020D3F8902002F00052C0F832
:101D10008420D3F88C2002F00072C0F88820D3F819
:101D20008C2002F08062C0F88C2099681A6F01F450
:101D3000F81102F440720A430263D3F88C3003F0C6
:101D400080738363704700BFF1FFFF1C00380240BF
:101D5000B0F5002F43D1334BD3F88C2002F440125E
:101D6000B2F5001F5BD01ED8002A47D15A6812F482
:101D7000800F5A6808BF2C4B02F03F0218BF2B4B54
:101D8000B3FBF2F3274AD2F88810D2F88800C0F3E8
:101D900088105843C1F30363B0FBF3F0D2F88C30E2
:101DA000C3F3042317E0B2F5401F30D00020704782
:101DB0001E4BB3FBF2F31B4AD2F88410D2F8840016
:101DC000C0F388105843C1F30363B0FBF3F0D2F8BB
:101DD0008C3003F01F030133B0FBF3F07047B0F514
:101DE000801FE3D10F4BD3F88C2002F44002B2F5F0
:101DF000000F14D0B8D9B2F5400FD6E75A6812F4E4
:101E0000800F5A6802F03F02D2D1074BD1E75B68DE
:101E1000054813F4800F054B18BF18467047044857
:101E2000704700BF003802400024F40040787D0174
:101E30000080BB002DE9F74F0023DFF8BC916C4A0E
:101E400001240D689C4004EA0506AC4340F0B780CD
:101E50004D6803274FEA430E05F0030407FA0EFC12
:101E6000671E6FEA0C0C012F34D8876807EA0C084C
:101E7000CF6807FA0EF747EA08078760476827EA3E
:101E80000608C5F300179F4047EA08074760C76880
:101E9000022C07EA0C088F6807FA0EF747EA0807D2
:101EA000C76019D14FEAD30803F0070A4FF00F0BB0
:101EB00000EB88084FEA8A0AD8F820700BFA0AFB70
:101EC00027EA0B0B0F6907FA0AF747EA0B07C8F86E
:101ED000207001E0032CDAD1076804FA0EF415F43F
:101EE000403F07EA0C0744EA0704046067D0D9F8CA
:101EF000444023F0030703F0030C4FF00F0E44F4AB
:101F0000804407F180474FEA8C0CC9F8444007F53C
:101F10009C37D9F844400EFA0CFE04F48044019436
:101F2000019CBC6824EA0E0E324CA0424ED004F54F
:101F30008064A0424CD004F58064A0424AD004F5ED
:101F40008064A04248D004F58064A04246D004F5E5
:101F50008064A04244D004F58064A04242D004F5DD
:101F60008064A04240D004F58064A0423ED004F5D5
:101F70008064A04214BF0A24092404FA0CF415F466
:101F8000801F44EA0E04BC606FEA060794680CBF29
:101F90003C40344315F4001F9460D4680CBF3C40AF
:101FA000344315F4003FD46054680CBF3C403443C4
:101FB000ED035460146854BF3C4034431460013353
:101FC000102B7FF43DAF03B0BDE8F08F0024D4E7C1
:101FD0000124D2E70224D0E70324CEE70424CCE78F
:101FE0000524CAE70624C8E70724C6E70824C4E78F
:101FF000003C014000000240003802402DE9F04F53
:1020000000224FF0010A4FF00F084FF0030B464C2F
:102010000AFA02FC3CEA01030CEA01066CD122F048
:10202000030502F0030705F18045BF0005F59C3567
:1020300008FA07F9AB6809EA030E3C4B984260D0F6
:1020400003F5806398425ED003F5806398425CD0CC
:1020500003F5806398425AD003F58063984258D0C4
:1020600003F58063984256D003F58063984254D0BC
:1020700003F58063984252D003F58063984250D0B4
:1020800003F58063984214BF0A230923BB407345BC
:1020900013D1236823EA06032360636823EA060357
:1020A0006360E36823EA0603E360A36823EA0603A8
:1020B000A360AB6823EA0903AB6053000568D60848
:1020C0000BFA03F300EB860625EA0305056002F030
:1020D0000705376AAD0008FA05F527EA05073762F4
:1020E000C56825EA0305C560456825EA0C05456015
:1020F000856825EA030383600132102A88D1BDE890
:10210000F08F0023C2E70123C0E70223BEE70323C9
:10211000BCE70423BAE70523B8E70623B6E707239D
:10212000B4E70823B2E700BF003C014000000240D2
:1021300000690840003818BF012070470AB181616A
:1021400070470904FBE70000044A5169014208B5E1
:1021500002D0506112F0C8FD08BD00BF003C014034
:10216000036802461820D9B21039B1FBF0F010B55F
:10217000054C5F29205CD06523F47F7020F00300BC
:1021800088BF0430906510BD9C9D020870B5044660
:1021900000F00AFB0546002C60D00223226884F878
:1021A0003530002384F83430136823F001031360C2
:1021B00022681368D8072ED413683248A1691840E2
:1021C000D4E901352B43E5682B4325692B43656929
:1021D0002B43E5690B432B43256A2B430343606A7A
:1021E000042802BFD4E90B5635432B43042813605F
:1021F000536923F0070343EA000335D1A06AE56A77
:1022000003438DB391B9012820D030F002012BD1C6
:10221000E90129D51DE000F0C7FA401B0528C7D900
:1022200020230320636584F8350070BDB1F5005F9D
:1022300016D1032818D801A151F820F05322000824
:1022400011220008532200084D220008B5F1C07F7A
:102250000AD140236365002384F835300120E4E788
:102260000228F6D90328D3D053612046FFF778FF20
:10227000E26D3F239340836000200123606584F872
:102280003530D2E73F8010E038B5054620B390F8EE
:102290003530022BDCB21DD0036800241A6822F00E
:1022A00001021A6021221C605C609C60DC601C6181
:1022B0005A61FFF755FFEA6D3F23934083606C65D9
:1022C00085F8344085F83540C5E90F44C5E9114427
:1022D000C5E91344204638BD0124FBE770B590F8EA
:1022E0003440866D012C34D0012480F8344090F8BD
:1022F0003540012C4FF0000429D1022580F83550DB
:1023000044650468256825F480252560636083683A
:10231000402B19D1A260E160C26D3F239340B360AE
:10232000236843F016032360636943F0800363610D
:10233000036C1BB1236843F008032360236800206B
:1023400043F00103236070BDA160E260E4E780F820
:1023500034400220F7E770B50446866D00F024FA99
:10236000054694F83530022B06D0802301206365A2
:10237000002384F8343070BD23681A6822F01602F6
:102380001A605A6922F080025A61226C0AB9A26C62
:102390001AB11A6822F008021A601A6822F00102C3
:1023A0001A602368186810F0010007D1E26D3F231E
:1023B0009340B360012384F83530D9E700F0F4F995
:1023C000401B0528EDD920230320636584F83500E0
:1023D000CEE790F83530022B03D0802343650120EF
:1023E00070470268052380F835300020136823F019
:1023F00001031360704700000023F7B50193082222
:102400005B4B0446856D1F68C36D2E689A4032424F
:102410000CD001680868400708D5086820F004005F
:102420000860AA60626D42F00102626501229A4072
:10243000324208D021684969090604D5AA60626D54
:1024400042F00202626504229A40324208D02168BA
:102450000968880704D5AA60626D42F004026265CB
:1024600010229A40324210D02368196809070CD50F
:10247000AA601A68500337D51B68190301D4236C6E
:1024800000E0A36C0BB120469847E16D20228A4002
:1024900032423AD023681868C60636D5AA6094F846
:1024A0003520052A1A6827D122F016021A605A69C7
:1024B00022F080025A61226C0AB9A26C1AB11A6821
:1024C00022F008021A603F238B40AB60012384F89E
:1024D0003530002384F83430236D002B45D020465E
:1024E00003B0BDE8F04018471A68D205C7D41A688F
:1024F00022F008021A60C2E7500327D51B681903AF
:1025000031D4636C0BB120469847636D6BB3636D38
:10251000DA0719D54FF416532268B7FBF3F70523F2
:1025200084F83530136823F001031360019B0133F5
:10253000BB42019302D81368DB07F7D4012384F868
:102540003530002384F83430E36CC6E71A6812F49F
:10255000807208D1196821F010011960012384F8F4
:10256000342084F83530E36BCCE703B0F0BD00BF16
:102570000400002090F835007047406D704700005F
:10258000024A136843F48073136070470070004080
:10259000194B37B51A6C194C42F080521A641B6CF7
:1025A00003F080530193019B236843F4803323603D
:1025B00000F0FAF805466368DA030CD523680F4D7E
:1025C00043F40033236000F0EFF804466B689B038C
:1025D0000AD5002006E000F0E7F8401BB0F57A7F4E
:1025E000E9D9032003B030BD00F0DEF8001BB0F5E0
:1025F0007A7FEBD9F5E700BF003802400070004059
:1026000007490302CA6803F4E06322F4E06212049B
:10261000120C134343F0BF6343F40033CB607047A5
:1026200000ED00E0164B30B5DC68C4F30224C4F1C1
:102630000703251D042B28BF0423062D4FF0FF356B
:102640008CBF033C002405FA03F3002805FA04F5C7
:1026500021EA030322EA050203FA04F343EA020330
:102660004FEA0313DBB206DB00F1604000F5614086
:1026700080F8003330BD00F00F00024A1354F9E730
:1026800000ED00E014ED00E0002807DB4109012324
:1026900000F01F00024A834042F82130704700BF1B
:1026A00000E100E000280CDB4309012200F01F00DC
:1026B00004492033824041F82320BFF34F8FBFF3FA
:1026C0006F8F704700E100E0BFF35F8F044B5A6AE1
:1026D00022F480325A620022C3F89420704700BF6F
:1026E00000ED00E0064B40F00100C3F894005A6A88
:1026F00042F480325A62BFF34F8FBFF36F8F70473F
:1027000000ED00E04378144AC2F89830D2F8A030C7
:1027100023F00103C2F8A0304368C2F89C30C37AAA
:10272000017B1B0643EA017301780B43817A43EA7C
:10273000C143417B43EA8143817B43EA4143C17BFF
:1027400043EA0143417A43EA0123017A43EA410320
:10275000C2F8A030704700BF00ED00E0002808DBA1
:102760004309012200F01F0002496033824041F812
:102770002320704700E100E008B50320FFF740FF89
:10278000002013F083FF13F063FF002008BD00005A
:10279000034A044B11681B780B441360704700BF59
:1027A0001C06002008000020014B1868704700BF7D
:1027B0001C06002038B50446FFF7F6FF0546631CEB
:1027C0001EBF044B1B78E418FFF7EEFF431BA34228
:1027D000FAD338BD0800002003689A69910701D533
:1027E00000229A629A69D20703D49A6942F00102E0
:1027F0009A61704730B5039DC1F3090104682B430A
:10280000606843EA0243054A0B4342EA555223F00B
:10281000004320EA02000343636030BDFF63FF030F
:10282000204B426B9A4201F0010370B50DB201F0EA
:10283000020420D01C4EB2421DD01C4EB2421AD00F
:10284000002DC3F10003B4BFB822002203F0F2034D
:10285000134314B143F0F40308E0102902D143F00C
:10286000900303E0202901D143F0200301680A68A6
:1028700013430B6070BD002DC3F10003B4BFB82239
:10288000002203F0F2031343002CE3D11029E6D019
:10289000202902D143F06003E8E7402908BF43F054
:1028A0004003E3E781360008013B00083D3500089E
:1028B00011F0010307D090F8413003F02803282BD2
:1028C00014BFF22342238A0709D590F8412002F071
:1028D0002802282A0CBF43F0440343F0F4030A04FF
:1028E000016848BF43F0B8030A6822EA03030B609B
:1028F00070472DE9F8430568064688461746AC69D7
:1029000014F0100470D000241023A146EB61356848
:10291000AB69980662D4B9F1000F34D044F00404D6
:102920000120AB69D90505D54FF4807244F001044C
:102930000120EA615A0505D54FF4806244F008048D
:102940000120EA619B0551D54FF4007344F0020465
:10295000EB613046FFF740FF6B68012023F0FF7307
:1029600023F48B3323F4FF7323F001036B60736C48
:1029700023437364202386F84130002386F84230D5
:1029800086F8403034E0B8F1FF3FC1D0FFF70CFFCC
:10299000C01B404502D8B8F1000FB8D13368596860
:1029A00096F842209869D2B200040AD5490408D4A6
:1029B000202A06D05A6842F480425A60FFF7F4FE9B
:1029C000074633689B699D06A1D4FFF7EDFEC01B47
:1029D0001928F6D920244FF0010998E7B9F1000F22
:1029E0009CD12023EB6199E720469AE70028B0D1DB
:1029F000BDE8F88370B504460D46164623689B690A
:102A00009B0701D500201FE0324629462046FFF7EC
:102A100070FFC0B96A1CF1D0FFF7C6FE801BA84248
:102A200001D8002DEAD123689B6913F00203E5D198
:102A3000626C84F8403042F020026264202284F804
:102A4000412084F84230012070BD2DE9F041DDF8CD
:102A5000188004460F4616461D4623689B6937EAD0
:102A600003030CBF01230023B34201D0002025E063
:102A7000424629462046FFF73CFFF0B96B1CECD0DC
:102A8000FFF792FEA0EB0800A84201D8002DE4D188
:102A900023689B6937EA03030CBF01230023B34279
:102AA000DBD1636C43F020036364202384F841305E
:102AB000002384F8423084F840300120BDE8F081E2
:102AC00070B504460D46164623689B699B0601D5E2
:102AD00000201DE0324629462046FFF70AFFB0B924
:102AE000FFF762FE801BA84201D8002DECD12368BD
:102AF0009B6913F02003E7D1626C84F8403042F008
:102B000020026264202284F8412084F842300120AF
:102B100070BD10B5044600284ED090F8413003F047
:102B2000FF021BB980F8402012F014FE242384F821
:102B3000413023681A6822F001021A60626822F0AC
:102B400070621A619A6822F400429A60D4E9022104
:102B5000012906D142F400429A605A6822F40062C8
:102B600007E042F4044202299A60F6D15A6842F41E
:102B700000625A6000205A6842F0007242F400423B
:102B80005A60DA6822F40042DA60D4E904210A4388
:102B9000A16942EA0122DA60D4E907210A431A60F6
:102BA0001A6842F001021A602023606484F8413000
:102BB000206384F8420010BD0120FCE72DE9F74FA7
:102BC000994690F8413004460F46202B1646BDF832
:102BD00034A0DDF8388040F0C6800C9B13B1BAF108
:102BE000000F06D14FF400736364012003B0BDE809
:102BF000F08F90F84030012B00F0B5804FF0010BC2
:102C000080F840B0FFF7D0FD1923054600905A46E2
:102C10004FF400412046FFF718FF0028E5D121239B
:102C200060635FFA89F2394684F84130402384F8C2
:102C300042300C9B6064204663624C4BA4F82AA08F
:102C400000934FF08073FFF7D5FD2A46414620469A
:102C5000FFF7D0FE18BBB9F1010F236815D1F6B20A
:102C60000022802120469E6243460095FFF7EDFE3C
:102C7000A8B9638D9BB2FF2B15D8628D4FF00073FE
:102C800092B22285D2B2009012E0320A414620462A
:102C90009A622A46FFF7AEFE08B92368DFE70023F1
:102CA00084F84030A1E7FF224FF080732285009026
:102CB00039462046FFF79EFD2A4641462046FFF74B
:102CC00099FE002891D1636A226813F8011B916272
:102CD0006362638D228D013B013A9BB292B26385A0
:102CE000638D22859BB2B3B1AAB9434680212046A9
:102CF0000095FFF7AAFE00287FF477AF638D9BB2A3
:102D0000FF2B28D9FF224FF080732285009039468F
:102D10002046FFF76FFD638D9BB2002BCCD12A4676
:102D200041462046FFF7CCFE00287FF45EAF2368C3
:102D30002021D9615A6822F0FF7222F48B3222F4EA
:102D4000FF7222F001025A6084F8411084F84000BA
:102D500084F842004AE7628D4FF0007392B22285F8
:102D6000D2B20090D3E7022040E700BF00200080ED
:102D70002DE9F74F994690F8413004460F46202B35
:102D80001646BDF834A0DDF8388040F0C9800C9BB1
:102D900013B1BAF1000F06D14FF400736364012040
:102DA00003B0BDE8F08F90F84030012B00F0B88000
:102DB0004FF0010B80F840B0FFF7F6FC19230090AC
:102DC00005465A464FF400412046FFF73EFE0346B3
:102DD0000028E4D122226063394684F84120402251
:102DE00084F842200C9A6064204662624D4AA4F83E
:102DF0002AA000925FFA89F2FFF7FCFC2A464146BE
:102E00002046FFF7F7FD20BBB9F1010F236816D16B
:102E1000F6B20022402120469E6243460095FFF70D
:102E200014FEB0B9638D9BB2FF2B3F4B15D8628D5A
:102E300092B22285D2B200934FF0007312E0320AB0
:102E4000414620469A622A46FFF7D4FD08B9236816
:102E5000DEE7002384F84030A1E7012222850093B9
:102E60004FF0807339462046FFF7C4FC43460022EA
:102E7000042120460095FFF7E8FD00288FD1236844
:102E80005A6A636A1A70636A228D0133013A636277
:102E9000638D92B2013B22859BB26385638D9BB2A9
:102EA000B3B1AAB94346802120460095FFF7CDFD76
:102EB00000287FF474AF638D9BB2FF2B28D90122C9
:102EC0004FF080732285009039462046FFF792FC30
:102ED000638D9BB2002BC9D12A4641462046FFF79D
:102EE000EFFD00287FF45BAF23682021D9615A6889
:102EF00022F0FF7222F48B3222F4FF7222F00102E0
:102F00005A6084F8411084F8400084F8420047E792
:102F1000628D4FF0007392B22285D2B20090D3E757
:102F200002203DE70020008000240080F7B5044621
:102F30001D46089F94F84130BDF82400202B3FD156
:102F400007B128B94FF400730120636403B0F0BDEA
:102F50002668B36913F4004332D194F840C0BCF141
:102F6000010F2DD04FF0010C012D676284F840C095
:102F70004FF0220C84F841C04FF0400C84F842C05E
:102F80006364104B6085E3620F4BE1646363D3B20B
:102F900013D1B3624FF0FF332365EAB20B4B002528
:102FA000204600930023FFF725FC2046012184F8EA
:102FB0004050FFF735FC2846C8E7120AB262EBE73B
:102FC0000220C3E70000FFFF9137000800200080C7
:102FD0002DE9FF471D46002304461746039390F84A
:102FE0004130202B79D103689B6913F4004374D1DD
:102FF00090F84020012A70D0C1F30906012246F062
:10300000007880F84020242248F4205880F841209D
:103010004364E3682268012B0ABF46F0007343460D
:1030200043F400535360FFF7BFFB81462268936966
:103030009269C3F34013C2F3001213431DD02368F7
:103040009A6912F0100A38D12B46524620212046A8
:10305000CDF80090FFF7F9FC28B3636C042B04D182
:1030600023682022DA61C4F844A0039B0133039350
:10307000039B039BBB42CCD309E06B1CD6D0FFF76C
:1030800093FBA0EB0900A84201D8002DCED120234C
:10309000012084F84130636C43F020036364002313
:1030A00084F8403006E020232268D36184F8413060
:1030B00084F8400004B0BDE8F087102220212046AB
:1030C000DA612B460022CDF80090FFF7BEFC002805
:1030D000CBD123682022DA61C7E70220EAE70000AB
:1030E00037B590F8423004460D46102BDAB201D0C5
:1030F000402A2FD194F84030012B2DD094F8413044
:103100000121212B84F840101AD12046FFF7D0FB73
:1031100011232363602329460025012284F84130CE
:1031200020460E4B00934FF00073FFF763FB2046E1
:10313000202184F84050FFF773FB284603B030BDD0
:1031400094F84130222BE5D102212046FFF7B0FB55
:103150001223DEE70120F1E70220EFE700400080C4
:103160000268436B9169126803B118477047704752
:10317000704738B5002580F8425090F84130212B37
:103180004FF0200380F841300AD11123012145631B
:103190000363FFF78DFB80F84050FFF7E8FF38BD71
:1031A0001223022145630363FFF782FB80F840503E
:1031B000FFF7DEFFF3E77047704708B503680021AB
:1031C0001A6880F84210510415D51A6822F480421A
:1031D0001A6090F84130292B13D12823012180F85F
:1031E000413021230363FFF763FB002380F8403065
:1031F000FFF7E1FF08BD1204EBD51A6822F4004284
:10320000E6E790F841302A2BF4D12823022180F8F8
:10321000413022230363FFF74BFB002380F840304B
:10322000FFF7CAFFE6E7704790F8412002F0280256
:10323000282AF8B5036835D19E69C2689D69C6F32E
:103240000046022A99684FEA1545DF6805F0FE0539
:103250001FD185EAD115C1F3090215F006050ED17B
:10326000816C01318164816C022907D10821856458
:10327000D96180F840503146FFF7D5FFF8BD4FF4D3
:103280000041FFF715FB002307F0FE0280F84030F5
:10329000F1E74FF40041FFF70BFB00232A4680F8CB
:1032A0004030E8E70822DA61002380F84030E5E7A3
:1032B0007047000008B5164B2022C3620023036349
:1032C000436380F8412080F842304B0712D50368F1
:1032D0005A6A436A1A70436A01334362038D4BB1E1
:1032E000013B0385438D013B9BB24385436C43F017
:1032F0000403436448F20301FFF7DAFA036810227B
:10330000DA61002380F84030FFF7D2FF08BD00BF2C
:103310000000FFFF704790F84120602A4FF0000244
:1033200008B508D1202180F8402080F841100263C0
:1033300011F0C0FC08BD026380F8402011F09AFC37
:10334000F8E7000070B5002290F841303C4D04468B
:1033500080F84220283BC5624285022B426C42EA3B
:10336000010242642AD80321FFF7A2FA282380F839
:103370004130344BA06B6363236B002841D0112B89
:1033800001D0212B3DD123681A68510403D51A6856
:1033900022F480421A60FFF7EDF801282CD02A4B66
:1033A000A06B0365002384F84030FFF712F8002873
:1033B00045D0A06B036DBDE87040184748F203018B
:1033C000FFF776FAFFF708FA90F84130602B11D03A
:1033D000202380F8413003689A6995060AD59A69D6
:1033E000D00605D51022DA61626C42F004026264F4
:1033F0002022DA610023BDE72046BDE87040FFF7D8
:103400008ABFE06B0028F7D0122B01D0222BF3D11A
:1034100023681A68120403D51A6822F400421A605D
:10342000FFF7A8F80128E7D0074BE06B03650023FE
:1034300084F84030FEF7CDFF08B1E06BBAE770BD0D
:103440000000FFFFFB3B00080D3D000873B5202383
:10345000056804460E46EB6190F84130212B36D1C9
:103460000121FFF725FA112323636B68F20623F08D
:10347000FF7323F48B3323F4FF7323F001036B609A
:103480004FF000036363A3F58033E36205D5102397
:10349000EB61636C43F00403636494F84130602B88
:1034A00005D1730703D56B6ADBB20193019B2046FC
:1034B000FFF792F9636C94F84120602A00D07BB149
:1034C000616C204602B0BDE87040FFF73BBF90F84A
:1034D0004130222BC9D10221FFF7EAF91223C3E7B9
:1034E00094F84120212A12D1202284F8403084F817
:1034F0004120236394F8422084F84230402A03D1CB
:10350000FFF708FF02B070BDFFF731FEFAE794F84D
:103510004120222AF6D1202284F8403084F841202C
:10352000236394F8422084F84230402A02D111F0FB
:1035300083FBE7E7FFF71CFEE4E7000037B590F8F0
:1035400040300446012B00F09480012380F8403085
:10355000CB0612D5D30610D5036810222021DA61DC
:10356000436C43F004034364FFF75AF9FFF734F95F
:10357000002084F8400003B030BD880708D59307C9
:1035800006D52368226D9A624FF0FF332365EFE77B
:1035900008063ED553063CD501212046FFF788F9A1
:1035A0001021FFF73DF9638D9BB2002B2DD0638D69
:1035B0009BB2FF2B1FD923689B69E16C13F4803FFA
:1035C0004FF000030CBFFF250125258500932A46F7
:1035D0004FF0807389B2FFF70DF9638D5B1B9BB2CF
:1035E000638594F841202368222A1A6836D142F470
:1035F00000421A60BCE7658D0023E16CADB2258501
:103600000093EAB24FF00073E4E74021FFF79AFE1F
:10361000AEE7480625D5530623D501212046FFF7FE
:1036200047F91021FFF7FCF894F84110124A134BA8
:10363000222918BF1346628D92B2FF2A09D9226847
:103640009269E16C12F4803F0CBFFF2501252585AE
:10365000BCE7658DE16CADB22585D1E742F48042CF
:10366000C7E7880684D5930682D52046FFF7EEFE8D
:103670007EE702207FE700BF00200080002400805A
:1036800073B590F840300446012B7FD00123CD065E
:1036900080F8403012D5D30610D5036810222021BF
:1036A000DA61436C43F004034364FFF7B9F8FFF7B2
:1036B00093F8002084F8400002B070BD0E0648D593
:1036C000550646D525682B6823F040032B60638D93
:1036D0009BB2002B31D06968638DC1F309019BB2A5
:1036E000FF2B1FD9AB69D8031AD5012323854FF0CF
:1036F00080730022268D2046009294F82820FFF740
:1037000079F8638D9B1B9BB2638594F84130222B23
:103710002B680CBF43F4004343F480432B60C8E79D
:10372000FF23E3E7638D2385E36A13F5803F01D030
:10373000E36ADEE74FF00073DBE76B689A0103D4BE
:103740002046FFF716FDB4E740212046FFF7FAFDBB
:10375000AFE74B0612D5560610D5638D9BB2002BF2
:10376000F2D123685A689501A3D4E26A12F5803F2A
:10377000E6D15A6842F480425A609AE7880698D5A2
:10378000930696D52046FFF761FE92E7022093E765
:1037900073B590F8403004460D461646012B00F0F4
:1037A0009E80012380F84030CB0617D5D10615D571
:1037B00003681022DA61436C43F004034364FFF7AB
:1037C0000BF8AA0605D5B30603D529462046FFF710
:1037D0003DFE002084F8400002B070BD6A0712D59B
:1037E000730710D5236825F004055A6A636A1A70B6
:1037F000636A01336362238D013B2385638D013B43
:103800009BB26385DDE7A80710D5B1070ED5236D00
:103810002268013304D1636A13F8011B9162E9E75E
:10382000236D93624FF0FF332365CAE72A0629D53B
:10383000730627D5638D9BB2FBB1238DEBB9628DE7
:1038400092B2FF2A10D922689269E16C12F4803F8B
:103850000CBFFF220122228500934FF0807389B2B2
:103860002046FEF7C7FFACE7628DE16C92B222857D
:10387000D2B200934FF00073F1E740212046FFF7EA
:1038800061FD9EE768069CD571069AD50121204608
:10389000FFF70EF80221FEF7C3FF94F84110114A1A
:1038A000114B222918BF1346628D92B2FF2A0DD9FF
:1038B00022689269E16C12F4803F0CBFFF22012262
:1038C000228500934FF0807389B2CAE7628DE16C64
:1038D00092B22285D2B200934FF00073F4E7022037
:1038E0007AE700BF00200080002400800368996907
:1038F0001A6810B4CC0508D5140606D5446C44F0FB
:10390000010444644FF48074DC614C0508D514064E
:1039100006D5446C44F0080444644FF48064DC61D0
:10392000890508D5120606D5426C42F002024264AF
:103930004FF40072DA61416C11F00B0F03D05DF8A7
:10394000044BFFF7FFBC5DF8044B70472DE9F041D5
:103950000568202204460E46D5F80080C76A90F814
:103960004130EA61213B092B0CD8DFE803F0056BFD
:103970000B0B0B0B0B71056B48F20101FEF798FF67
:10398000212323636B68204643F400436B606B681C
:1039900023F0FF7323F48B3323F4FF7323F001032D
:1039A0006B60FEF719FF18F4804F57D02B6823F493
:1039B00080432B60A36B1BB11B685B689BB2638564
:1039C00072070FD5636A26F004066A6A1A70636A82
:1039D00001336362238D2BB1013B2385638D013B52
:1039E0009BB26385638D9BB21BB1636C43F0040390
:1039F0006364F30611D518F0100F0ED0638D9BB2DF
:103A0000002B45D194F84130282B30D1B7F1007FFD
:103A10002DD131462046FFF74DFC002384F842307B
:103A2000656C6363002D42D0616C2046FFF78AFC11
:103A300094F84130282B4CD131462046BDE8F04166
:103A4000FFF738BC48F20201FEF732FF222398E765
:103A500048F20301FEF72CFF002392E718F4004F11
:103A6000AED02B6823F400432B60E36BA3E794F8FC
:103A700041202368292A4FF01002DA61CDD117F5D1
:103A8000803FCAD02046FEF7A7FEFFF796FBC4E7AB
:103A900023681022DA61636C43F00403636437F037
:103AA0008073BAD1616C2046FFF74CFCB5E7E36A3E
:103AB00013F5803F0FD02046FFF77FFB0F4B2046CA
:103AC00084F84050E362202384F841302563FFF7F7
:103AD000EFFBBDE8F08194F84130204684F8405077
:103AE000222B4FF0200384F84130256302D1FFF7E9
:103AF00063FBEEE7FFF75FFBEBE700BF0000FFFFB4
:103B000070B590F8406004460B46C56A012E72D02D
:103B1000012680F840608E0607D5960605D5FFF78A
:103B200015FF002084F8400070BDDE065BD5D0068E
:103B300059D5C2F3803002F4004252EA00014ED05F
:103B4000E16BC9B122B10A685268B2FA82F2520935
:103B5000A16B19B110B10968496809B1012A1ED1D8
:103B600094F84120282A09D1B5F1007F06D11946E1
:103B70002046FFF79FFBD4E70A46E9E794F8412087
:103B80002368292A4FF01002DA61CAD115F5803F67
:103B9000C7D02046FEF720FEFFF70FFBC1E72368E2
:103BA0001022DA6135F08072636C43F004036364C1
:103BB00094F84130DBB2B4D1213B092B08D8DFE8BF
:103BC00003F0050C070707070707050C21232363EC
:103BD000616C2046FFF7B6FBA3E72223F7E72368D3
:103BE0001022DA619DE719079BD5130799D5204666
:103BF000FFF71AFB95E7022096E770B590F8406052
:103C000004460B46C56A012E7ED0012680F840602E
:103C10008E0607D5960605D5FFF798FE002084F896
:103C2000400070BDD90630D5D6062ED5628D92B231
:103C3000E2B994F84120282A07D1B5F1007F04D1D8
:103C400019462046FFF736FBE8E794F84120236841
:103C5000292A4FF01002DA61E0D115F5803FDDD05E
:103C60002046FEF7B9FDFFF7A8FAD7E72368102230
:103C7000DA61636C43F00403636435F08073CDD183
:103C8000616C2046FFF75EFBC8E758071BD551075C
:103C900019D5638D9BB26BB123685A6A636A1A7037
:103CA000636A01336362238D013B2385638D013B8E
:103CB0009BB26385638D9BB2002BAFD115F5803F1E
:103CC000ACD02046CFE71E0705D5100703D5204608
:103CD000FFF7AAFAA2E79907A0D593079ED5638DAF
:103CE0009BB26BB1636A226813F8011B9162636235
:103CF000638D013B9BB26385238D013B23858DE75B
:103D000035F080738AD1DCE702208AE7806B836B11
:103D10000BB100221A65C36B0BB100221A65FFF7C5
:103D2000FABA10B590F841200346202AD4B21CD12B
:103D300090F84020012A18D0242280F841200268FF
:103D4000106820F001001060106820F480501060AE
:103D50001068014300201160116841F001011160F9
:103D600083F8414083F8400010BD0220FCE710B505
:103D700090F841200346202AD4B21BD190F840206D
:103D8000012A17D0242280F841200268106820F010
:103D900001001060106820F4706040EA01210020EA
:103DA0001160116841F00101116083F8414083F80E
:103DB000400010BD0220FCE710B5044608B9012000
:103DC00010BD437F03F0FF0213B9027711F0DAF858
:103DD000022363772379E3B92368134A5A619A6807
:103DE00022F018029A6062792368D2B94FF0FF324C
:103DF0001A6100209A68616922F060020A43A16991
:103E00009A609A6822F080020A439A6001236377DD
:103E1000D6E7D4E90212204600F008F80028E2D0E4
:103E2000CDE72269E4E700BFB71DC104CB0710B599
:103E30000BD51E2321FA03F4E40708D5102A18D065
:103E4000102A09D862B1082A15D0012010E0013BE0
:103E5000F0D2102AF4D1F8E7182AF6D1062BF4D8BC
:103E600000684161836823F01803134383600020D6
:103E700010BD072BF3E70F2BF1E710B5044670B325
:103E800090F8513003F0FF021BB980F8502011F078
:103E90001BF90223616884F8513023681A6822F400
:103EA00040320A43A1681A605A6B22F007020A43A3
:103EB000E1685A631A6C6FF30D020A431A64596B76
:103EC000D4E9040221F44011520542EA00520020D4
:103ED0000A435A630123606584F8513010BD012004
:103EE000FCE770477047036870B55E6804461D685C
:103EF000F20714D5E90512D51A6822F480721A6007
:103F0000426D42F00102426501229A60042380F86A
:103F10005130002380F85030C36903B19847B2068E
:103F200016D5AB0414D523681A6822F400521A601F
:103F300020229A60636D43F002036365042384F8D2
:103F40005130002384F85030E3690BB12046984784
:103F5000300716D5290514D523681A6822F40062A3
:103F60001A6008229A60636D43F0040363650423BA
:103F700084F85130002384F85030E3690BB12046B7
:103F8000984772070BD56B0509D5236820461A6838
:103F900022F480621A6004229A60FFF7A2FFB00741
:103FA00014D5A90512D523681A6822F400721A6084
:103FB00002229A60636D6365012384F85130002307
:103FC00084F85030A3690BB120469847F20613D508
:103FD000EB0411D5236820461A6822F480521A6037
:103FE00010229A60636D6365012384F851300023C9
:103FF00084F85030FFF776FF70BD426B036890F88D
:104000004C103AB91A6842F400321A6001291CD1E6
:1040100002231BE01A68032922F001021A601A68C1
:1040200042F400221A601A6842F001021A60EDD1CF
:10403000826B1AB91A6842F002021A6090F8403096
:10404000012B0CBF436C01238364042380F84C30A4
:10405000704703681A6822F001021A60426B012A55
:1040600003D11A6822F400221A601A6842F0010291
:104070001A6090F84C20042A10D1826B1AB91A6881
:1040800042F002021A6090F84030012B0CBF436CE2
:1040900001238364032380F84C307047022AF9D14E
:1040A0000123F8E7114B984214D02033984213D0E3
:1040B0002033984212D02033984211D020339842B6
:1040C00010D0203398420FD02033984214BF0720DD
:1040D000062070470020704701207047022070477B
:1040E000032070470420704705207047007401408A
:1040F0007047000038B50446002867D0344D00688A
:10410000FFF7D0FF55F82030002B5FD12046FFF796
:10411000EFFF304B1A6801321A601B68012B19D16E
:104120002D4B1A6822F080421A601A68A1680A436F
:104130001A601A6822F47F021A602279012A05D1D6
:10414000E1681A68013942EA01421A601A6842F0CD
:1041500000421A602068036823F471430360026818
:10416000D4E904310B43A1690B4313430360036893
:1041700023F00F0303600268D4E907310B43616A3F
:104180001343A26A0360013A836823F45F038360E8
:1041900083680B4343EA0243226B8360436803F066
:1041A00007034360436843EAC203E26A43EA022327
:1041B0004360036843F080030360012384F83430D4
:1041C000FFF770FF45F82040002038BD0120FCE7D4
:1041D00020060020400600200074014070470000C7
:1041E00038B5044618B30268124D1046FFF75AFF5F
:1041F00055F82030DBB1136823F0800313600E4BB9
:104200001A68013A1A601B6823B90C4A136823F034
:10421000004313602046FFF7E1FF0022206884F886
:104220003420FFF73FFF45F82020104638BD01201D
:10423000FCE700BF2006002040060020007401407B
:104240007047000038B50446002869D00268354B35
:104250009A4205D14068012861D0E06801285ED00B
:1042600000230122204623632365C4E91122FFF7BE
:10427000E7FF23681A6822F400221A60227A012AD2
:104280001A680CBF42F0005222F000521A60627AA3
:10429000012A1A680CBF42F4001222F400121A60BC
:1042A0001A68E56822F4FE42022D22F008021A6024
:1042B00003D11A6861690A431A60207C1A680128D0
:1042C0000CBF42F0100222F010021A60627C012A38
:1042D0001A680CBF42F0200222F020021A605A69CC
:1042E00022F0634202F0FF225A61626A5969013A80
:1042F0000A43E1690A43216A013942EA01425A61EB
:10430000626884F840000020C4E90D25A269E263D8
:104310001A6842F001021A60012384F84C3038BD5B
:104320000120FCE700750140704710B5044650B10C
:104330000268136823F001031360FFF7F5FF002004
:1043400084F84C0010BD0120FCE710B590F84C300B
:10435000013BDBB2FD2B14D803680902012A1C685B
:1043600001F07F4124F0E06424F480241C601C6888
:1043700041EA040108BF41F4802119600263002072
:1043800010BD0120FCE7000038B5134604460A467C
:1043900059B353B301680868800226D5606B30B901
:1043A000206B20B9A06AC069E0B9012B1DD194F837
:1043B0004C0000F0FD00012817D1A06A1C310E4D01
:1043C000C5630E4DC564C569B5F5807F0C4D18BF3A
:1043D00000250564FDF782FF054648B1FF2384F8F8
:1043E0004C3002E0B0F5807FE1D10125284638BD90
:1043F0002046FFF702FEF9E733440008494400086D
:104400003D44000810B590F84C300446022B01D012
:10441000042B07D1A06AFDF79EFF014628B1FF23B8
:1044200084F84C300121084610BD2046FFF711FEEC
:10443000F9E7806B08B513F01FFD08BD806B08B568
:1044400013F04AFE08BD704708B5806B032303656F
:10445000FFF7F9FF08BD2DE9F04107460D46144668
:104460001E46FEF7A1F980463B685A6FD2070AD56F
:1044700044EA0624069A002044EA024444EA8514E9
:10448000DC66BDE8F081FEF78FF9A0EB0800B0F51F
:104490007A7FE9D90320F4E7037C0246012B5BD045
:1044A00003680020C3F8C400C3F8C800C8079161BE
:1044B00007D5D3F8C4006FEA10406FEA0040C3F894
:1044C000C400880705D5D3F8C40040F4F810C3F839
:1044D000C400480705D5D3F8C80040F00100C3F870
:1044E000C800080705D5D3F8C80040F00200C3F89B
:1044F000C800C80605D5D3F8C80040F00C00C3F8C2
:10450000C800880605D5D3F8C80040F01000C3F8ED
:10451000C800480605D5D3F8C80040F02000C3F80D
:10452000C800080605D5D3F8C80040F04000C3F81D
:10453000C800C80505D5D3F8C80040F08000C3F80E
:10454000C800890505D5D3F8C81041F4F851C3F85F
:10455000C810002010747047022070477FB50D46C8
:104560000446002800F0E980437C0BB910F0C4FF3A
:1045700003236374002300932368D3F8302442F0AC
:104580008072C3F83024D3F8303403F08073009382
:10459000009BFEF709F906462268D2F80C34D904CC
:1045A0006ED5D2F8303423F45E3323F4FE73C2F8B0
:1045B0003034D2F83014D5E90003DB0243EA80033B
:1045C000A86843EA004301200B43C2F830340023BB
:1045D0000193D2F8303443F00103C2F83034D2F8FA
:1045E000303403F001030193019BFEF7E3F8FEF77B
:1045F000DBF806462368D3F80C24D20549D50022FF
:10460000A16802925A6842F001025A605A6802F0A8
:1046100001020292029A9A6822F0FF029A609A6856
:104620000A43E1689A60D3F8A02042F00202C3F87E
:10463000A020D3F8A02042F00402C3F8A020D3F8B1
:10464000A42022F00302C3F8A420D3F8A4200A4334
:10465000C3F8A420FEF7A8F823680646D3F8A430D0
:104660009B0726D02368D3F8B02002F09402942A46
:1046700026D0FEF799F8801BB0F57A7FF2D915E0C5
:10468000FEF792F8801BB0F57A7F85D9032004B03D
:1046900070BDFEF789F8801BB0F57A7FAAD9F5E7DF
:1046A000FEF782F8801BB0F57A7F02D900232374CD
:1046B000ECE72368D3F8B02002F01402142AEFD1FB
:1046C0006A6846F2A8101E49012A38BF01224A43EF
:1046D000A96801F003018A40296841430020B2FB28
:1046E000F1F2D3F8181421F03F01C3F81814D3F8ED
:1046F00018140A436168C3F81824C3F8C400C3F847
:10470000C80003905A68A06122F001025A605A68FA
:1047100002F001020392039AD3F8942022F00302DC
:10472000C3F89420D3F894200A4342F00102C3F85E
:104730009420012360616374A9E70120A7E700BF0B
:1047400000093D007047704770470368D3F80C2498
:10475000D10710B5044608D5D3F80824D20704D5EC
:104760000122C3F81024FFF7EDFF2368D3F80C24CF
:10477000910709D5D3F80824920705D502222046CF
:10478000C3F81024FFF7DFFFA369002B4ED0216888
:10479000D1F8BC20D1F8C4301A40D1F8C030D1F8DB
:1047A000C8100B4091B219B1616941F0010161611A
:1047B00012F4F81F03D0626942F002026261D80766
:1047C00003D5626942F004026261990703D5626908
:1047D00042F00802626113F00C0F03D0626942F0EC
:1047E00010026261DA0603D5626942F0200262615A
:1047F000980603D5626942F040026261590603D50A
:10480000626942F0800262611A0603D5626942F46D
:104810008072626113F4F85F03D0636943F400733C
:104820006361636913B12046FFF78EFF10BD027C00
:104830000346012A0AD00268106B20F003001063BF
:10484000106B0143002011631874704702207047F9
:1048500030B5037C0446012B00F0E880012303748B
:104860000368C8685A6B4D6922F001025A63D3F895
:10487000002422F00102C3F800249A6B22F0030204
:104880009A639A6B024308699A63DA6B6FF30D02BD
:10489000DA63DA6B02436648DA631A6C02401A6420
:1048A0001A6C2A431A645A6C024088695A645A6C1A
:1048B000024308685A64DA6822F00302DA60DA68B0
:1048C0000243DA605A6922F007025A615869D1E955
:1048D00008522A43CD692A4302435A611A6922F0D9
:1048E0000F021A614A681869032A40EA0200186137
:1048F000D3F8000420F00E00C3F80004D3F800043D
:1049000040EA4200C3F8000407D11A69886822F41B
:1049100080721A611A6902431A619A6C45488D6A5D
:1049200002409A649A6C2A434D6B9A64DA6C024096
:10493000C86ADA64DA6C0243086BDA641A6D6FF3E2
:104940000E021A651A6D02433B481A655A6D024001
:104950005A655A6D2A438D6B5A659A6D02409A6565
:104960009A6D2A439A65DA6D0240C86BDA65DA6D92
:104970000243DA651A6E6FF30D021A661A6E086C3E
:104980000243486C1A669A6B22F400429A639A6B4F
:104990000243886C9A639A6922F47F029A619A6949
:1049A00042EA0042C86C9A619A6922F0FF029A6159
:1049B0009A690243086D9A619A6B22F400529A63D5
:1049C0009A6B0243486D9A639A6B22F480529A6301
:1049D0009A6B0243886D9A639A6B22F400629A6321
:1049E0009A6B02439A639A6BC86D22F480629A6351
:1049F0009A6B0243086E9A639A6B22F400729A6370
:104A00009A6B0243486E896E9A639A6B22F48072A5
:104A10009A639A6B024300209A639A6B22F4804255
:104A20009A639A6B0A439A63207430BD0220FCE7B4
:104A300000E0FFFF00F0FFFF00FCFFFF30B5037C4C
:104A40000246012B29D00068154B846E23408366F3
:104A5000846ED1E900352B438D682B43CD682B4301
:104A60000D692B434D692B438D692B43CD692B4336
:104A70000D6A2B434D6A2B438D6A2B43CD6A096B1C
:104A80002B4323438366836E23F002038366836E86
:104A90000B4383660020107430BD0220FCE700BF8A
:104AA000FF80F0FE027C0346012A0AD00268D06A29
:104AB00020F01F00D062D06A01430020D162187438
:104AC00070470220704730B5037C0446012B34D078
:104AD000D1E90003984238BF18462368D3F89820DC
:104AE00002F0FC22C3F89820D3F8982042EA004252
:104AF0000243C3F89820D3F89C2002F40042C3F884
:104B00009C20D3F89C00D1E90225120642EA054216
:104B10000D6949692A4302430020C3F89C20D3F859
:104B2000A42022F47F42C3F8A420D3F8A42042EAB0
:104B30000122C3F8A420207430BD0220FCE700004D
:104B400030B5037C0446012B5BD0036808689A6883
:104B50008D6822F47F429A609A6842EA002248688F
:104B60009A609A6F92B29A679A6F42EA00429A6785
:104B7000254A986F10409867986F2843CD689867CA
:104B8000D86F1040D867D86F28430D69D867D3F81D
:104B900080001040C3F88000D3F8800028434D699E
:104BA000C3F88000D3F884001040C3F88400D3F821
:104BB00084002843C3F88400D3F8840020F0807078
:104BC000C3F88400D3F884008D692843CD69096A4D
:104BD000C3F88400D3F888001040C3F88800D3F8E5
:104BE00088002843C3F88800D3F88C0002400020D6
:104BF000C3F88C20D3F88C200A43C3F88C2020748F
:104C000030BD0220FCE700BF0000FFFF037C82B044
:104C1000012B1CD0026800230093516841F0010170
:104C20005160516801F00101009100990193D2F89F
:104C3000041441F00801C2F80414D2F804240374E7
:104C4000184602F008020192019A02B07047022051
:104C5000FBE737B5057C0446012D09D00125057415
:104C6000069D0095FFF7F7FB0023237403B030BDCA
:104C70000220FBE72DE9F84F1C46037C06460F4651
:104C8000012B1546DDE90A9852D001230374FDF784
:104C90008BFD83463268536F13F0010A19D0032C41
:104CA00020464FF0000328BF032083421DD1E01AA5
:104CB0004344C2F8709010BB013445EA87152302C3
:104CC00024029BB204F47F041D432543D56630744F
:104CD00009E0FDF769FDA0EB0B00B0F57A7FD9D9AB
:104CE000032086F810A0BDE8F88F18F803100133F0
:104CF0004FEAC30C01FA0CF149EA0109D5E704288F
:104D00004FF0000C8646614628BF4FF0040E13F8A2
:104D100001804FEAC109013108FA09F88E454CEAD1
:104D2000080CF4D1A0EB0E007344C2F870C0C2E7C7
:104D30000220D8E72DE9F7431E46037C05460C46C2
:104D4000012B1746DDF82890DDF830806FD0012365
:104D5000022E03740DD9C6F3072337220093F3B252
:104D6000FFF779FB28B1002301202B7403B0BDE8C5
:104D7000F083B9F1060F0FD10B9B2A681B0243EA9F
:104D8000841343F00603D366FDF70EFD0446002EA0
:104D900027DC00202874E9E7B9F1040F05D1A4014C
:104DA0002B6844F00404DC66EEE7B9F1140F08D177
:104DB00098F80020A4012B6844EA022444F014046B
:104DC000F1E7B9F1240FCED198F80120A4012B68A6
:104DD00044EA024498F8002044EA022444F02404FF
:104DE000E1E72A68536F13F010030DD1042E106F02
:104DF000324628BF0422D90020FA01F1F9540133C8
:104E00009A42F8D1B61A1744FDF7CEFC001BB0F554
:104E10007A7F03D9002303202B74A7E72B685A6FEE
:104E20005206B4D4D3F8C0309B069CD4AFE702201E
:104E30009CE7027C0346012A0FD00268D2F81C04CA
:104E400020F0C060C2F81C04D2F81C0440EA4161A2
:104E50000020C2F81C1418747047022070472DE916
:104E6000F041D1E9012CD1E90738D1F824E043EA37
:104E70000803D1E90376D1E90554096881B943EA09
:104E80000E03016813436FF30E0143EA0C033B4327
:104E900033432B4323430B4303600020BDE8F081E1
:104EA000016843EA0E0321F4F8410B43036042EA30
:104EB0000C0341683B4321F4FF42334322F07F025D
:104EC0002B43234313434360E7E7CB6803F1FF3CE5
:104ED0004B69F0B5013B4C688F680E691B058D6905
:104EE000013C013F013E013D096824013F020139B7
:104EF00036042D0643EA0C335AB90B438268234328
:104F000002F070423B4333432B4313438360002042
:104F1000F0BD826822F4700222F470421343836071
:104F200044EA0703C2680B4302F0704233432B4349
:104F30001343C360EBE710B5D1E9003402692343A2
:104F4000CC686FF3150243EA442313438A68013A9D
:104F500043EA42130361002010BD43696FF34D0320
:104F600043EA410343610020704738B50D460446CB
:104F7000C8B190F82C3003F0FF021BB980F82D2047
:104F800010F04EFB0223211D206884F82C30FFF71F
:104F900066FF626829462068FFF797FF012300201B
:104FA00084F82C3038BD0120FCE770B590F82C3027
:104FB00005460E46022BD8B210D000F0FB04012C9F
:104FC00010D10223286885F82C30FFF7B4FF33682E
:104FD000022B04D1052385F82C30002070BD85F804
:104FE0002C40FAE70120F9E738B590F82C30044658
:104FF000022BD8B20DD094F82C30012BDDB209D1A0
:105000000223206884F82C30FFF7A7FF002084F8E3
:105010002C5038BD0120FCE7704770477047F8B549
:10502000036804461D6915F0800605D080220264DD
:105030001A6942F080021A61E8070FD52222E26362
:10504000628E01326286DA68A36A1A70A36A2268E5
:105050000133A362136943F001031361A90710D55B
:1050600022680027618E2046136943F00203136112
:105070002023C4E90F37A36A5B1AA362FFF7CDFFB1
:105080006786EA0512D5238E2268013B9BB22386F0
:105090001BB9136843F004031360E36A13F8011BA0
:1050A0009160E362136943F480731361AB050DD51E
:1050B00022682046136943F4007313612023A3631D
:1050C000002384F834302364FFF7A6FF41F67C41C7
:1050D0000D4213D0226815F07C0F2564136943EA52
:1050E000010313610BD0628EA36A9B1AA362002393
:1050F00063862023E3632046FFF790FFF8BD002E70
:10510000F9D115F4E05F1CBF2023A363F3E700008F
:10511000D201006884328318F0B5C7685D684C68B6
:10512000C7F30B4705F470450E6827445D6006F130
:10513000010CC568A41BC5F30B45654445EA07454A
:105140005D60C768CD68C7F30A072F449D6805F402
:1051500070459D608D68D0F80CC00135CCF30A0C09
:105160006544D1F810C045EA07458F69BCF1070FC7
:105170009D601D6925F007051D61C3F810C091F8F9
:10518000305045EA076591F8317045EA072591F8F6
:10519000327045EA07459D615D6925F0FF055D6157
:1051A0004D695D61DD6925F4E06525F00705DD6188
:1051B000D1E9075745EA070588BF0127DD614D6A38
:1051C0009D629CBF0C4D15F80C70DD6A7C4305F0A8
:1051D000E0250334DD628D6AC96A7D4344EA0544F3
:1051E000DC621C6B6FF30A041C631963835843F081
:1051F00001038350F0BD00BFA49D020838B50446EA
:1052000000284ED090F8A13003F0FF021BB980F8BF
:10521000A02010F099FB022384F8A13023689A693A
:1052200022F070429A619969D4E901200243E06852
:105230000243206902430A439A61D4E9051242EA13
:1052400001429A60D4E9071242EA0142DA60D4E9E5
:10525000091242EA01421A61D4E90B1242EA014200
:105260005A61DA6A94F8350002F07F4294F83610F9
:10527000DA62DD6A94F834202A4342EA00220020F0
:1052800042EA0142DA625A6B42F006025A639A69B4
:1052900042F001029A610123C4F8A40084F8A1300D
:1052A00038BD0120FCE77047036870B59E6B04466B
:1052B0005D6B720714D5690712D55A6B22F0040290
:1052C0005A630422DA63D0F8A43043F00103C0F833
:1052D000A430002380F8A12080F8A0301BF0C8F98A
:1052E000B20716D5AB0714D5236820465A6B22F0B7
:1052F00002025A630222DA63D4F8A4301343C4F8DA
:10530000A430042384F8A130002384F8A0301BF0DB
:10531000AFF9F00710D5E9070ED5236820465A6B80
:1053200022F001025A630122DA63002384F8A120EB
:1053300084F8A0301BF022F9320711D52B070FD5C6
:10534000236820465A6B22F008025A630822DA6367
:10535000012384F8A130002384F8A030FFF7A3FFD5
:1053600070BD2DE9F04190F8A03006460F469446F6
:10537000012B4FF002001FD034244FF001080D46DE
:1053800086F8A10004FB026486F8A08038340FCDB3
:105390000FC40FCD0FC40FCD0FC42B68304662462B
:1053A00039462360FFF7B4FE33680020C3F8248039
:1053B00086F8A18086F8A000BDE8F081034630B5EC
:1053C00090F8A00001284FF0020026D083F8A10039
:1053D000342000FB0230D201806C8432072896BF53
:1053E0000E4C0124245C18684C430244D06A6FF3CD
:1053F0001C40D0620A48456A45F001054562D56AFD
:1054000045EA0444D462426A42F001024262012247
:10541000002083F8A12083F8A00030BDA49D0208DD
:105420000068014090F8A02003460220012A12D013
:105430001A6883F8A100506B20F001005063064801
:1054400001640020516B41F001015163012283F896
:10545000A00083F8A12070470068014038B50A4ACF
:1054600004460368DA60FDF79FF905462368DB68A8
:105470009B0601D5002038BDFDF796F9401BB0F51D
:105480007A7FF3D90320F6E75FFF0100036870B568
:10549000DC68054614F0400417D1DA6842F0800257
:1054A000DA60FDF781F906462B68DB685B0600D4FD
:1054B0000CB1204670BDFDF777F9801BB0F57A7FFF
:1054C000F2D9042301246B77EEE70024F1E70368A7
:1054D000DA6822F0800210B5DA6004469B689B0609
:1054E00001D5002010BDFFF7B9FF0028F9D0042333
:1054F00001206377F6E710B5044608B9012010BD16
:10550000437F03F0FF0213B9027710F0ADFA0223D4
:1055100063772368DA68D20603D501230020637716
:10552000EDE7CA2220465A6253225A62FFF7AEFFC5
:1055300030B101202368FF225A620028EDD0DDE758
:10554000236820699A6822F4E00222F040029A60FF
:105550006268996802436069024320460A43A16871
:105560009A60E2681A611A6942EA01421A61FFF719
:10557000AEFF0028DDD12368A169DA6C22F00802B1
:10558000DA64DA6C0A43DA64D4E70023092803D822
:1055900040EA0310C0B270470A380133C0B2F5E7E1
:1055A0002DE9F041037F05460E460220012B2BD04A
:1055B0000123296868772B7730787478B7788B68FF
:1055C00022BB13F0400308BFF370FFF7DEFF8046F5
:1055D0002046FFF7DAFF04463846FFF7D6FFF37898
:1055E00040EA835343EA084343EA0424CA23284693
:1055F0004B6253234B62FFF749FF98B101202B68A0
:10560000FF225A6200232B77BDE8F081240213F0B9
:10561000400344EA004408BFF370F3783C4344EA93
:105620008354E3E704F07F342A6824F0FE441460D6
:10563000936823F4802393609168D6E90330034391
:1056400028460B439360FFF742FF0028D6D1012381
:105650006B77D4E7F8B5037F05460220012B1CD0F9
:10566000012368772B770E78C8784C7876038F788B
:10567000A2B146EA00433B43CA2243EA04242B6812
:1056800028465A6253225A62FFF700FFE0B1012018
:105690002B68FF225A6200232B77F8BDE30641BF37
:1056A00024F010040A34E4B24C70FFF76EFF014698
:1056B0002046FFF76AFF04463846FFF766FF40EAD8
:1056C000060343EA0143D7E724F07F442A682846CB
:1056D00024F0C0045460FFF7FAFE0028D7D101235C
:1056E0006B77D5E72DE9F047037F05460220012BB4
:1056F00079D001232E6868772B77087891F801908C
:1057000091F802A091F82070CC69B368002A4AD1C0
:1057100013F0400308BFCB70FFF737FF80464846C1
:10572000FFF733FF02465046FFF72FFF814638460A
:10573000FFF72BFF4B692343CC7843EA845343EABA
:10574000090343EA084343EA022343EA00648B69FE
:105750004F681F43CA237362532373624B6AB3F5C6
:10576000807FB36841D123F48073B360B36823F4BE
:105770008053B360F368DBB263F4C073F360FDF78A
:1057800013F806462B68DA68D1071ED5DC615F6422
:105790009A6842F480729A60FF2200205A620123C4
:1057A00028776B771FE013F0400308BFCB704B697D
:1057B0001C43CB7844EA0A0444EA004444EA09243E
:1057C00044EA835444EA0764C1E7FCF7EDFF801B19
:1057D000B0F57A7FD6D92B68FF2203205A620323C3
:1057E0006B7700232B77BDE8F08723F40073B36059
:1057F000B36823F40053B360F368DBB263F420733F
:10580000F360FCF7D1FF06462B68DA68920705D5EE
:105810001C629F649A6842F40072BCE7FCF7C4FF04
:10582000801BB0F57A7FEFD9D5E70000304B37B554
:105830001D684FF4FA430446B5FBF3F54FF47A7351
:105840005D43037F0220012B019517D00123607770
:10585000CA2023772368586253205862986810F44E
:10586000806F11D0019801380190019840B9FF2252
:1058700003205A62032363770023237703B030BDEC
:10588000D86810F0040FECE7986820F48060986006
:10589000D868C0B260F49060D86001950198013872
:1058A000019001980028E2D0D8684007F6D59868A2
:1058B00020F0070098609868024300209A600D4A23
:1058C0005961116841F480011160916841F48001CF
:1058D00091609A6842F480429A609A6842F48062C9
:1058E0009A60FF225A62012320776377C6E700BFE0
:1058F00004000020003C014070B5037F04460220F4
:10590000012B2AD00123CA226077237723685A62A9
:1059100053225A629A6822F480629A609A6822F44A
:1059200080429A60FCF740FF06462268D56815F071
:10593000040506D0FF2300205362012320776377FC
:105940000BE0FCF731FF801BB0F57A7FEDD92368BF
:10595000FF2203205A626077257770BD094B4FF410
:10596000800210B55A6104460268D3685B0506D50B
:10597000D368DBB263F49063D36010F0BBF801230B
:10598000637710BD003C01400368503343F8212089
:1059900070470368503353F8210070470129016BA9
:1059A00042680CBF09230123082905D122F0020116
:1059B000012908BF43F01003023A012A94BF43F0C3
:1059C000600043F0040070470C4B41F658321B68EE
:1059D000B3FBF2F302689B00116821F4803111607F
:1059E00033B9D0F8803043F04003C0F880307047BE
:1059F0001168013BC903F3D4704700BF04000020C5
:105A000070B50446002800F0C88090F87D3003F09F
:105A1000FF021BB980F87C2010F074F902232046A5
:105A200084F87D30FFF7D0FFE368012B00F0A580FC
:105A3000981E434243415B01A568022D00F0A180FE
:105A4000032D00F09C80691E4D424D41AD0222683D
:105A5000534954488A4203D0534EB24240F0948096
:105A6000C0F80038E3693BB38A4203D04E4B9A42F8
:105A700040F08D804FF40020FCF76AF923684B4A10
:105A8000934202D02032934203D14FF48010FCF7AE
:105A90005FF90A22E36950435B02B0FBF3F0B0FB0D
:105AA000F2F302FB1300226B092808BF0133042A1A
:105AB000236204BF5B0823626368E16B33F0020278
:105AC00067D1013918BF0121226849023848166898
:105AD0003040266B3343666B10603343A66B10680F
